:020000040800F2
:1000000000090020450100086514000811140008CB
:10001000611400081D070008FF1B00080000000015
:1000200000000000000000000000000005160008AD
:100030002107000800000000ED140008191700084F
:100040005F0100085F0100085F0100085F01000810
:100050005F0100085F0100085F0100085F01000800
:100060005F0100085F0100085F0100085F010008F0
:100070005F0100085F0100085F0100085F010008E0
:100080005F0100085F0100085F0100085F010008D0
:100090005F0100085F0100085F0100085F010008C0
:1000A0005F0100085F0100085F0100085F010008B0
:1000B0005F0100085F0100085F0100085F010008A0
:1000C0005F0100085F0100085F0100085F01000890
:1000D0005F010008B91700085F010008C118000897
:1000E0005F0100085F0100085F0100085F01000870
:1000F0005F0100085F0100085F0100085F01000860
:100100005F0100085F0100085F0100085F0100084F
:100110005F0100085F0100085F0100085F0100083F
:100120005F0100085F0100085F0100085F0100082F
:10013000DFF80CD000F006F9004800476120000805
:10014000000900200648804706480047FEE7FEE712
:10015000FEE7FEE7FEE7FEE7FEE7FEE7FEE7FEE777
:100160005917000831010008D2B201E000F8012B54
:10017000491EFBD270470022F6E710B513460A4627
:1001800004461946FFF7F0FF204610BD30B505467E
:100190002A460B4612F8010B13F8014B08B1A04296
:1001A000F8D01CB1002802D06D1CF1E7284630BD04
:1001B000421C10F8011B0029FBD1801A7047000077
:1001C00070B50F4D00B92868002412E00A4602E01D
:1001D0009E4203D0521C1378002BF9D1DAB222438D
:1001E00005D02BB124B1002100F8011B04E0044626
:1001F000401C0678002EE9D12860204670BD000022
:10020000200000200FB400B589B00BA800906A460A
:1002100003480A9900F08CF809B05DF814FB00005F
:10022000240000202DE9FF5FD2E901A74FF000086C
:10023000916999461446DDF838B0464601988847DA
:10024000054659EA0B0005D009E0A169761C019822
:1002500088470546216A284688470028F5D1681C4A
:1002600003D05FEACA7005D015E04FF0FF3004B04C
:10027000BDE8F09F2068011D2160D0F800800AE0F1
:100280005FEACA7001D108F8015BA169761C7F1E84
:10029000019888470546002F1ADD681C18D0B9F16F
:1002A000000F0DD0E81705EBD060421120F01F00C1
:1002B00059F822102A1A012090400142E0D107E0AB
:1002C000BBF1000FDCD1216A284688470028D7D02F
:1002D000E16901988847BBF1000F07D1002E05DDC9
:1002E0005FEACA7002D1002188F80010A068B84205
:1002F00003DDBBF1000F03D017B16FF00100B6E7CB
:100300003046B4E730B50B460146002020220124D8
:1003100009E021FA02F59D4205D303FA02F5491BD3
:1003200004FA02F52844151EA2F10102F1DC30BDE9
:10033000024B9361024BD36100F032B8B91F000841
:1003400085030008064C074D06E0E06840F0010315
:1003500094E8070098471034AC42F6D3FFF7ECFE60
:1003600084280008A4280008094910B508784C1C06
:1003700018B1401E0870205C10BD00210720ABBEE4
:10038000207010BD02490878421C0A7070470000B6
:100390002C00002002681144137801601846704751
:1003A000D160044951610449116200211161114673
:1003B00000F00AB895030008BD030008C0B24FF46E
:1003C000F05100F097B900002DE9F34F8BB04FF0DA
:1003D000000801F10C000C464FF0010B46460DF1F0
:1003E000080A01906269012101989047051E2DD0ED
:1003F000252D2CD0216A8847C0B16269012101985E
:100400009047216A88470028F7D1411E6269019808
:10041000904700E0761CA1690B988847216A8847BD
:100420000028F7D1E1690B988847DBE7A1690B98B1
:1004300088470746A84201D1761CD3E7E1690B98AB
:1004400088477F1C02D1B8F1000F6FD046E100272A
:1004500062693D463946019890472A2804D162696D
:100460000121019890470125DFF8849262690121FA
:1004700001989047A0F130010A290AD24F45E5DCE6
:1004800007EB870100EB4107303FDFD445F0100553
:10049000ECE7E90601D46FF000476C280AD04C283D
:1004A00014D0682815D06A280DD074281CD07A285A
:1004B0001AD01DE062690121019890476C2802D092
:1004C00045F0040514E045F002050DE045F0200577
:1004D0000AE06269012101989047682802D045F03E
:1004E000080505E045F4006562690121019890471F
:1004F000C4E9015765283DD019DC58287AD00CDCB6
:10050000452837D004DC252826D0412831D131E0D8
:1005100046282FD047282CD12CE05B2877D06128A3
:1005200028D063287CD0642823D15AE0D0E06F28FB
:1005300048D008DC66281DD067281BD0692821D048
:100540006E2816D127E0702845D0732868D075280A
:1005500047D078280DD14DE0A1690B988847054612
:1005600025283FF469AFE1690B9888476D1C3FF47B
:100570006AAFB3E023466A466FF001000B99AFF310
:1005800000809EE045F040006060A80723464FF0E1
:10059000000236D43EE0E8077FF447AF2068011D33
:1005A00021600068290501D506701BE7290701D5E0
:1005B000068017E7A90703D5F117C0E9006111E725
:1005C00006600FE745F040006060A80723464FF043
:1005D000080216D41EE040F60E0125EA0100606014
:1005E00016E045F040006060A80723464FF00A027D
:1005F00007D40FE045F040006060A80708D5234607
:1006000010226FF001000B99AFF3008059E007E072
:10061000234610226FF001000B99AFF3008050E0E9
:100620004FF000094F464B46632802D05B2806D0A6
:1006300040E0E80601D40120A06001273AE06269A9
:100640000121019890475E2805D14FF001096269A8
:10065000494601989047216939B900210A46534615
:1006600043F82120491C0829FADBB0B3216969B994
:10067000C11700EBD16253110AEB830122F01F0274
:10068000821A01200B68904003430B6062690121CC
:10069000019890475D28E8D1B9F1000F09D00020FA
:1006A000514651F82020D24341F82020401C082810
:1006B000F7DB02AB224600976FF001000B99FFF7C2
:1006C000B1FD00280CDA401C08D1BBF1000F05D0A9
:1006D0004FF0FF300DB0BDE8F08FFFE74046F9E77F
:1006E000E90701D108F1010806444FF0000B79E653
:1006F000CCCCCC0C7F2801D9002208E0064A02EBC2
:100700005002C007127800D1120902F00F02012036
:100710009040084070470000A821000800BFFEE795
:10072000704700009CB0642103A8FFF724FD00255A
:100730000027012000F01CF900F0DAF8012000F099
:1007400023FA3F4801F0E0FA03A93EA0FFF75AFD63
:100750003DA001F0D9FA03AE00BF05E02846691CB0
:10076000CDB24DF8204000263CA13046FFF728FDD1
:10077000041EF3D1DDE90121009800F0D5F840F620
:10078000C41337A238A139A000F002F9012000F00B
:100790005BF9384801F0B8FA03A92AA0FFF732FD47
:1007A00029A001F0B1FA03AE002505E02846691C36
:1007B000CDB24DF82040002628A13046FFF700FDBD
:1007C000041EF3D10120DDE9001200F001FD00BF9D
:1007D00029A001F099FA4FF4FA732DA222A12EA0BC
:1007E00000F0D6F82F4801F08FFA44F6206001F0AF
:1007F000A0FB4FF4FA7300222BA12FA000F0C8F841
:100800000028E5D0304801F07FFA03A90DA0FFF7DA
:10081000F9FC03A8FFF7CCFC074600233A4603A9DE
:10082000184600F007FB29A001F06EFA07E000204F
:1008300000F0E6F90446214602A001F065FAF6E769
:10084000A0250008257300000D0AC9D4B5C8C6ACA0
:10085000BFCC20A1ADA1AD0D0A0000002C0000000E
:1008600072656164790000004F4B000041542B52C7
:1008700053540000082800080D0AD5FDB2E9D1AF95
:10088000B1BEC4A3BFE94950A1ADA1AD0D0A00009E
:100890004C696E6B0000000041542B434946535293
:1008A00000000000142300082B43495053544154C6
:1008B00055533A300000000041542B4349505354E3
:1008C00041545553000000001C2400080D0AC7EBDA
:1008D000D4DACAD6BBFACDF8C2E7B5F7CAD4D6FA8D
:1008E000CAD6B7A2CBCDD7D6B7FBB4AE0D0A00009F
:1008F00010B54FF40041094800F088FD4FF47A70BC
:1009000001F017FB01E000F0B5F9C823002204A1B3
:1009100004A000F03DF80028F5D010BD000801400B
:100920004F4B00004154000070B5A0B004460D4686
:1009300016462B46224607A102A8009601F0F4F9BC
:100940004FF47A73002209A102A800F021F820B028
:1009500070BD000041542B43575341503D22257335
:10096000222C222573222C312C2573004F4B0000A2
:1009700010B50446012C04D11021044800F046FDB6
:1009800003E01021014800F03FFD10BD00080140C8
:100990002DE9F04106460C4615461F462548B0F89D
:1009A00000046FF30E002349A1F80004324622A18F
:1009B000234800F0C3FF1CB915B90120BDE8F08140
:1009C000B8B201F0B6FA00201A49B1F80014C1F328
:1009D0000E01184A505411461AA001F095F9B4B10D
:1009E000ADB121461348FFF7D1FB08B1012000E06B
:1009F000002040B929460F48FFF7C8FB08B1012085
:100A000000E0002008B10120D8E70020D6E744B17B
:100A100021460848FFF7BAFB08B10120CEE70020C5
:100A2000CCE729460348FFF7B1FB08B10120C5E731
:100A30000020C3E7F800002025730D0A0000000025
:100A4000004800402573000010B586B004460CB184
:100A5000012000E00020024606A101A801F064F98F
:100A60004FF4FA73002207A101A8FFF791FF06B027
:100A700010BD000041542B4349504D55583D25644D
:100A8000000000004F4B000030B59FB004460D46FB
:100A90002B46224606A101A801F046F941F658333B
:100AA000002208A101A8FFF773FF1FB030BD0000AE
:100AB00041542B43574A41503D222573222C222575
:100AC000732200004F4B0000F0B5B9B006460F4648
:100AD00014461D46642120A8FFF74DFB16B1012ED8
:100AE00010D107E03B4614A214A120A8009401F005
:100AF0001BF908E03B4615A210A120A8009401F0C4
:100B000013F900E000BF00BF052D06DA20AB2A462E
:100B10000FA102A801F008F904E020AA11A102A87F
:100B200001F002F94FF4FA7312A216A102A8FFF71E
:100B30002FFF39B0F0BD000054435000222573222E
:100B40002C222573222C25730000000055445000F0
:100B500041542B43495053544152543D25642C2554
:100B60007300000041542B43495053544152543DAB
:100B700025730000414C5245415920434F4E4E458C
:100B8000435400004F4B000010B5044624B1012C23
:100B90000AD0022C18D10FE040F6C4130BA20EA10C
:100BA0000EA0FFF7F5FE10BD40F6C41307A20AA180
:100BB0000DA0FFF7EDFEF6E740F6C41303A206A171
:100BC0000CA0FFF7E5FEEEE70020ECE76E6F206378
:100BD00068616E67650000004F4B000041542B4375
:100BE000574D4F44453D310041542B43574D4F44E1
:100BF000453D320041542B43574D4F44453D330052
:100C000070B5044600251748B0F800046FF30E00D5
:100C10001449A1F800040846B0F8000420F400408C
:100C2000A1F8000400BF0F48B0F80004C00B002872
:100C3000F9D000200B49B1F80014C1F30E01094AA4
:100C4000505434B108A11046FFF7A0FA38B1054D51
:100C500005E006A10348FFF799FA00B1014D2846C7
:100C600070BD0000F80000203E0000002B495044F9
:100C70000000000010B54FF40041064800F0C4FB2E
:100C80004FF4FA7001F055F94FF40041014800F0BB
:100C9000BDFB10BD000801409CB0642103A8FFF714
:100CA0006AFA002400270120FFF762FEFFF720FE0A
:100CB0000020FFF769FF41F28833002247A148A0D6
:100CC000FFF766FE00BF494801F01EF803A948A0DF
:100CD000FFF798FA47A001F017F803AE002406E0EA
:100CE0002046611CCCB201A941F82050002646A143
:100CF0003046FFF765FA051EF2D1DDE90101FFF785
:100D0000C3FE0028DFD00120FFF79EFE00BF3F4852
:100D100000F0FAFF03A936A0FFF774FA35A000F03F
:100D2000F3FF03AE002406E02046611CCCB201A90B
:100D300041F82050002634A13046FFF741FA051E45
:100D4000F2D100231846DDE90112FFF7BDFE0028AD
:100D5000DDD001230020DDE90112FFF7B5FE0028F8
:100D6000D5D002230020DDE90112FFF7ADFE0028F7
:100D7000CDD003230020DDE90112FFF7A5FE0028F6
:100D8000C5D004230020DDE90112FFF79DFE0028F5
:100D9000BDD0002413E021461D4800F0B5FF03A993
:100DA00013A0FFF72FFA03A8FFF702FA074623461E
:100DB0003A4603A9002000F03DF8601CC4B2052C9F
:100DC000E9DB14A000F0A0FF07E00020FFF718FF08
:100DD0000546294606A000F097FFF6E74F4B0000B6
:100DE00041542B43574C415000000000B0270008ED
:100DF000257300000D0AC9D4B5C8C6ACBFCC20A16C
:100E0000ADA1AD0D0A0000002C0000002425000853
:100E1000D42400080D0AC7EBD4DACDF8C2E7B5F741
:100E2000CAD4D6FACAD6B7A2CBCDD7D6B7FBB4AE02
:100E30000D0A00002DE9F04186B007460C46154624
:100E40001E464FF000082FB1224613A1134800F0B0
:100E500075FD1CE0052E06DAAB1C324610A101A878
:100E600000F062FF04E0AA1C12A101A800F05CFFE0
:100E70004FF47A73002213A101A8FFF789FD4FF404
:100E80007A73002210A12046FFF782FD804640467B
:100E900006B0BDE8F0810000257300000048004066
:100EA00041542B43495053454E443D25642C256401
:100EB0000000000041542B43495053454E443D250A
:100EC000640000003E20000053454E44204F4B007C
:100ED0009CB0642103A8FFF74EF9002400270120ED
:100EE000FFF746FDFFF704FD0220FFF74DFE7848AF
:100EF00000F00AFF03A977A0FFF784F976A000F0BD
:100F000003FF03AE00BF05E02046611CCCB24DF8E4
:100F10002050002675A13046FFF752F9051EF3D187
:100F2000DDE901210098FFF7FFFC40F6C41370A231
:100F300071A172A0FFF72CFD41F2883300226EA14F
:100F400070A0FFF725FD00BF714800F0DDFE03A98A
:100F500060A0FFF757F960A000F0D6FE03AE0024B2
:100F600005E02046611CCCB24DF8205000265FA160
:100F70003046FFF725F9051EF3D1DDE90001FFF743
:100F800083FD0028E0D00120FFF75EFD614800F0FE
:100F9000BBFE03A94FA0FFF735F94FA000F0B4FE48
:100FA00003AE002405E02046611CCCB24DF8205071
:100FB00000264EA13046FFF703F9051EF3D10120AC
:100FC000DDE9001200F004F900BF534800F09CFE78
:100FD00003A940A0FFF716F93FA000F095FE03AE6D
:100FE000002405E02046611CCCB24DF820500026BC
:100FF0003EA13046FFF7E4F8051EF3D10023184662
:10100000DDE90012FFF760FD0028DED0012300209B
:10101000DDE90012FFF758FD0028D6D0022300209A
:10102000DDE90012FFF750FD0028CED000BF3BA045
:1010300000F06AFE4FF4FA7346A22FA147A0FFF713
:10104000A7FC494800F060FE44F6206000F071FF04
:101050004FF4FA73002245A148A0FFF799FC00283D
:10106000E5D0002413E02146484800F04DFE03A9D6
:1010700018A0FFF7C7F803A8FFF79AF8074623461A
:101080003A4603A90020FFF7D5FE601CC4B2032C2A
:10109000E9DB3F4800F038FE03A90EA0FFF7B2F8E5
:1010A00003A8FFF785F8074603233A4603A9002063
:1010B000FFF7C0FE37A000F027FE07E00020FFF793
:1010C0009FFD0546294603A000F01EFEF6E700003E
:1010D000BC260008257300000D0AC9D4B5C8C6ACEB
:1010E000BFCC20A1ADA1AD0D0A0000002C00000076
:1010F00072656164790000004F4B000041542B522F
:101100005354000041542B43574C41500000000001
:10111000B027000808280008242500080D0AD5FD7E
:10112000B2E9D1AFB1BEC4A3BFE94950A3ACC7B0C7
:10113000D2BBB8F6CEAA4150204950A3ACBAF3D2E4
:10114000BBB8F6CEAA535441204950A1ADA1AD0D74
:101150000A0000004C696E6B0000000041542B43F4
:101160004946535200000000982300082B43495081
:101170005354415455533A330000000041542B431B
:10118000495053544154555300000000D4240008E2
:10119000782400080D0AC7EBD4DAB5E7C4D4CDF83B
:1011A000C2E7B5F7CAD4D6FACAD6BBF2CAD6BBFADA
:1011B000CDF8C2E7B5F7CAD4D6FACAD6B7A2CBCD16
:1011C000D7D6B7FBB4AEA1ADA1AD0D0A00000000AB
:1011D00070B5BCB004460D461646FCB12B46012244
:1011E00015A11EA800F0A0FD324618A1684600F027
:1011F0009BFD4FF4FA73002218A11EA8FFF7C8FB4D
:1012000050B14FF4FA73002214A16846FFF7C0FBF7
:1012100010B101203CB070BD0020FBE72B4600223E
:1012200005A11EA800F080FD4FF4FA7300220BA167
:101230001EA8FFF7ADFBEDE741542B434950534542
:10124000525645523D25642C2573000041542B43D2
:10125000495053544F3D2573000000004F4B000090
:101260002DE9F0410246002500260020002300243D
:10127000002791F803C00CF00F0591F803C00CF0A3
:10128000100CBCF1000F03D091F802C04CEA050528
:1012900091F800C0BCF1000F31D0146800202BE0A1
:1012A0004FF0010C0CFA00F3B1F800C00CEA030691
:1012B0009E4220D183004FF00F0C0CFA03F7BC4381
:1012C00005FA03FC4CEA040491F803C0BCF1280FB2
:1012D00006D14FF0010C0CFA00FCC2F814C00AE071
:1012E00091F803C0BCF1480F05D14FF0010C0CFA86
:1012F00000FCC2F810C0401C0828D1D31460B1F81B
:1013000000C0BCF1FF0F34DD546800202EE000F176
:10131000080C4FF0010808FA0CF3B1F800C00CEA11
:1013200003069E4221D183004FF00F0C0CFA03F705
:10133000BC4305FA03FC4CEA040491F803C0BCF179
:10134000280F05D100F1080C08FA0CF8C2F8148037
:1013500091F803C0BCF1480F07D100F1080C4FF021
:10136000010808FA0CF8C2F81080401C0828CED3F7
:101370005460BDE8F0810000F0B50A460023002467
:101380000021002500F00046B6F1004F02D11D4EAD
:10139000F16901E01B4E7168C0F3034583B200F4AC
:1013A0004016B6F5401F08D121F07061154E7668E1
:1013B00026F07066134F7E6012E000F48016B6F5DA
:1013C000801F06D1032606FA05F4A14341F070619F
:1013D00006E0460D360103FA06F6B14341F07061AE
:1013E00022B1460D360103FA06F6314300F00046FD
:1013F000B6F1004F02D1034EF16101E0014E716080
:10140000F0BD00000000014041617047016170477C
:1014100000BFFEE708B50121482000F079F8202040
:10142000ADF8000010208DF8030003208DF80200B5
:1014300069460948FFF714FF20210748FFF7E6FF38
:101440002020ADF8000069460448FFF709FF20217D
:101450000248FFF7DBFF08BD000C01400018014007
:1014600000BFFEE77047000070B5002100230F2287
:10147000C47804B3154C246804F4E064C4F5E06453
:10148000210AC1F10403CA40447804FA03F18478C4
:101490001440214309010E4C0678A155047804F04C
:1014A0001F050124AC4005786D11AD0005F1E02564
:1014B000C5F8004109E0047804F01F050124AC40A0
:1014C000044D0678761145F8264070BD0CED00E01D
:1014D00000E400E080E100E002490143024A1160BB
:1014E000704700000000FA050CED00E070470000B6
:1014F00029B1064AD2690243044BDA6104E0034A87
:10150000D2698243014BDA6170470000001002404B
:1015100029B1064A92690243044B9A6104E0034AE6
:1015200092698243014B9A617047000000100240AB
:1015300030B500210022002400232D4D6D6805F0F8
:101540000C0121B1042905D0082923D105E0294D3A
:10155000056022E0274D05601FE0254D6D6805F40C
:101560007012234D6D6805F48034022505EB92421C
:101570001CB9214D554305600BE01D4D6D6805F408
:1015800000351DB11C4D5543056002E0194D554312
:10159000056002E0174D056000BF00BF144D6D6887
:1015A00005F0F0010909154D6B5C0568DD404560EB
:1015B0000F4D6D6805F4E061090A104D6B5C4568DC
:1015C000DD4085600A4D6D6805F46051C90A0B4D18
:1015D0006B5C4568DD40C560054D6D6805F44041B4
:1015E000890B074D6B5CC568B5FBF3F5056130BD34
:1015F0000010024000127A0000093D0004000020A3
:1016000014000020704710B500F002F810BD000073
:101610000CB50020019000903348006840F4803001
:101620003149086000BF3048006800F40030009085
:101630000198401C0190009818B90198B0F5A06F6E
:10164000F1D12948006800F4003010B10120009069
:1016500001E0002000900098012843D12348006851
:1016600040F01000214908600846006820F003009F
:1016700008600846006840F0020008601A484068A8
:10168000194948600846406848600846406840F488
:10169000806048600846406820F47C104860084636
:1016A000406840F4E81048600846006840F08070E8
:1016B000086000BF0C48006800F000700028F9D0F6
:1016C0000948406820F00300074948600846406820
:1016D00040F00200486000BF0348406800F00C0082
:1016E0000828F9D10CBD0000001002400020024083
:1016F000042808D14FF0E021096941F004014FF0BE
:10170000E022116107E04FF0E021096921F00401B6
:101710004FF0E022116170477047000010B5044699
:101720006FF00400FFF7E4FFE11704EB5171C1F320
:10173000C701074A11701046007800EB4001C1EB69
:10174000C0104FF6FF7101EAC0000249088010BDC9
:10175000180000201A00002010B51348006840F05F
:1017600001001149086008464068104908400E49C8
:101770004860084600680E4908400B490860084662
:10178000006820F4802008600846406820F4FE00CD
:1017900048604FF41F008860FFF735FF4FF000608E
:1017A0000449086010BD0000001002400000FFF86E
:1017B000FFFFF6FE08ED00E010B540F225511D4890
:1017C00000F058F910B31B4800F010FAC4B21A48E0
:1017D000008800F40040C8B91748008800F4804031
:1017E00060B10A2C03D000201349088020E0124881
:1017F000008840F400401049088019E00D2C06D103
:101800000D48008840F480400B49088010E00A48E9
:101810000088C0F30D0009490C5407480088401C9B
:101820000549088008460088C72801DD0020088097
:1018300010BD0000003801401C00002030000020D6
:1018400010B586B0044601210420FFF761FE012196
:101850008803FFF75DFE4FF40070ADF8140003201D
:101860008DF8160018208DF8170005A91248FFF70B
:10187000F7FC4FF48060ADF8140004208DF81700D9
:1018800005A90D48FFF7ECFC01940020ADF8080015
:10189000ADF80A00ADF80C00ADF810000C20ADF862
:1018A0000E0001A9054800F035F90121034800F0B8
:1018B000C8F806B010BD0000000801400038014023
:1018C00010B540F225511B4800F0D4F8D8B11948A2
:1018D00000F08CF9C4B21848B0F80004C0F30E0050
:1018E00040F2FF3188420EDA1349B1F80014C1F317
:1018F0000E00411C104AB2F8002461F30E020E499A
:10190000A1F800240C5440F224410A4800F0B2F837
:1019100001280DD10848B0F8000420F4004000F57B
:1019200000400549A1F80004024800F05FF9C4B284
:1019300010BD000000480040F80000200FB470B552
:1019400086B006460CA8019073E00B9800785C28DE
:101950001CD10B98401C0B9000786E2809D072287F
:101960000FD10D21304600F046F90B98401C0B902A
:101970000BE00A21304600F03EF90B98401C0B901A
:1019800003E00B98401C0B9000BF4BE00B980078D5
:10199000252840D10B98401C0B900078642818D063
:1019A000732833D1019810C801900BE0217830469C
:1019B00000F021F900BF8021304600F04EF80028E9
:1019C000F9D0641C20780028F0D10B98401C0B90B3
:1019D00020E0019820C801900A2202A9284600F0C0
:1019E0000DFB02AC0BE02178304600F004F900BF9B
:1019F0008021304600F031F80028F9D0641C2078AE
:101A00000028F0D10B98401C0B9003E00B98401C71
:101A10000B9000BF06E00B9810F8011B0B903046AE
:101A200000F0E9F800BF8021304600F016F80028E9
:101A3000F9D00B980078002887D106B070BC5DF80B
:101A400014FB21B1828942F40052828104E0828930
:101A50004DF6FF731A408281704702460020B1F5AF
:101A6000007F00D100BF13880B400BB1012000E0C4
:101A70000020704770B50246002400230025002096
:101A800040F66A16B14200D100BFC1F3421501F021
:101A90001F03012606FA03F3012D02D19689334074
:101AA00006E0022D02D1168A334001E0968A3340C7
:101AB0000C12012606FA04F41688344013B10CB156
:101AC000012000E0002070BDF0B503460024002690
:101AD0000025002040F66A17B94200D100BF184621
:101AE000C1F3421401F01F06012707FA06F5012C85
:101AF00001D10C3004E0022C01D1103000E0143090
:101B00001AB107682F43076002E00768AF43076018
:101B1000F0BD00002DE9F04786B005460E460024D2
:101B2000A24600BFA1460027B08900B100BF2F46E2
:101B30002C8A4CF6FF700440F08804432C82AC8958
:101B40004EF6F3100440B088318908437189084388
:101B50000443AC81AC8A4FF6FF400440B089044393
:101B6000AC8201A8FFF7E4FC1F48874202D1DDF8F0
:101B700010A001E0DDF80CA0A88900F4004040B1FD
:101B80000AEBCA0000EB0A1031684900B0FBF1F81B
:101B900007E00AEBCA0000EB0A1031688900B0FBCD
:101BA000F1F86420B8FBF0F004012009642101FB86
:101BB0001089A88900F4004040B1322000EBC90030
:101BC000B0FBF1F000F00700044308E0322000EB26
:101BD00009106421B0FBF1F000F00F0004432C81E8
:101BE00006B0BDE8F0870000003801400146888853
:101BF000C0F308007047C1F308028280704700BF3D
:101C0000FEE7000000B587B001218804FFF770FCF3
:101C100001210820FFF77CFC01210420FFF778FC5C
:101C200001210846FFF774FC01213348FFF7A4FBAC
:101C300048F21000ADF8180010208DF81B000320AA
:101C40008DF81A0006A92D48FFF70AFB10212B4832
:101C5000FFF7DAFB4FF400412848FFF7D7FB4FF4BA
:101C60008060ADF8180003208DF81A0018208DF858
:101C70001B0006A92248FFF7F3FA4FF40060ADF805
:101C8000180004208DF81B0006A91D48FFF7E8FA8C
:101C90004FF4165002900020ADF80C00ADF80E0085
:101CA000ADF81000ADF814000C20ADF8120002A938
:101CB0001448FFF72FFF012240F225511148FFF78A
:101CC00003FF012240F224410E48FFF7FDFE0121EF
:101CD0000C48FFF7B6FE27208DF8040000208DF891
:101CE00005008DF8060001208DF8070001A8FFF718
:101CF000BBFB07B000BD000000023000000801403F
:101D0000000C0140004800400FB4054B10B503A97A
:101D1000044A029800F02CF810BC5DF814FB000097
:101D2000D91F0008280000200FB4084B10B504A9E3
:101D300002AA039800F01CF8044602A9002000F053
:101D4000F3F8204610BC5DF814FB0000291F0008C2
:101D500002E008C8121F08C1002AFAD17047704774
:101D6000002001E001C1121F002AFBD170470000D2
:101D70002DE9FF4F8BB09A460F460546002606E038
:101D800025280BD052460D9990476D1C761C28785B
:101D90000028F5D10FB03046BDE8F08F0024A046F2
:101DA0000122604900E0044315F8013F203B02FA9C
:101DB00003F00842F7D128782E2817D115F8010F23
:101DC00044F004042A280ED06FF02F022878A0F1E6
:101DD000300109290AD808EB880102EB410100EB28
:101DE00001086D1CF2E757F8048B6D1C28786928F0
:101DF0003ED006DC0028CDD063280BD0642804D167
:101E000036E0732810D075284BD052460D99904774
:101E1000761C85E017F8040B8DF8000000208DF883
:101E20000100E946012003E057F8049B4FF0FF3022
:101E300061074FF0000401D40AE0641C44450DDA48
:101E40008442FADB19F804100029F6D106E0641C7C
:101E50008442FCDB19F804100029F8D1264404E080
:101E600019F8010B52460D999047641EF8D257E0BD
:101E700001CF4FF00A0B002802DA40422D2102E088
:101E8000210504D52B218DF82410012103E0E10761
:101E900005D02021F7E70DF1200908910CE0002181
:101EA000F9E701CF4FF00A0BF9E75946FEF72AFA96
:101EB00001F1300209F8012D0028F6D1ADEB09003F
:101EC00000F1200B600701D44FF00108D84502DD76
:101ED000A8EB0B0000E000208046002406E009A8E3
:101EE0005246005D0D999047641C761C0898844208
:101EF000F5DB04E0302052460D999047761CB8F18E
:101F00000001A8F10108F5DC05E019F8010B5246C3
:101F10000D999047761CBBF10001ABF1010BF4DC8D
:101F20006D1C34E7092801000A68531C0B6010700F
:101F3000704770B504464FF4077094FBF0F0C6B2DA
:101F40004FF4077094FBF0F100FB114085B205E0FF
:101F50004FF4077000F00AF8701EC6B2002EF7D1D9
:101F600015B1284600F002F870BD00000146114A84
:101F700012884A434FF0E0235A6100229A611A46C0
:101F8000126942F001021A6100BF4FF0E0221069AD
:101F900000F001021AB100F48032002AF5D04FF0AF
:101FA000E022126922F001024FF0E0231A610022C0
:101FB0009A6170471A00002010B5044600BF202126
:101FC0000448FFF74AFD0028F9D00248FFF70EFE4B
:101FD00010BD00000038014070B504460D46E1B266
:101FE0000548FFF708FE00BF80210348FFF735FDD5
:101FF0000028F9D0204670BD00380140F0B50346F6
:102000000D461646002729460A2E03D000200870E8
:102010002846F0BD33B9302001F8010B00200870CC
:102020002846F6E7002B03DA2D2001F8010B5B426E
:1020300042F210720DE093FBF2F404B937B104F1EF
:10204000300001F8010B04FB123301270A2092FB38
:10205000F0F2002AEFDC002008702846D9E70000E3
:1020600008B54820FFF75AFB4FF4A060FFF734FA99
:102070004FF4E130FFF7E4FBFFF7CCF9FFF7C2FDC7
:102080001BA0FFF741FE2348FFF73EFE694622A052
:10209000FEF7B8F89DF80000312804D0322809D0A6
:1020A000332815D10DE01D481D4908601DA0FFF71C
:1020B0002BFE14E027481A49086027A0FFF724FEEA
:1020C0000DE03048164908602F48FFF71DFE06E076
:1020D0000020134908602DA0FFF716FE00BF00BFC7
:1020E0000F48006810B10E480068804700BFFEE747
:1020F0000D0AC6D5D6D0505A2D45535038323636F3
:102100002057694669C4A3BFE9B2E2CAD4C0FDB38F
:10211000CC0D0A003022000825630000990C00084D
:10212000000000200D0ABCB4BDABBDF8D0D0B5C4D2
:10213000B2E2CAD4CAC7A3BA312E535441C4A3CA07
:10214000BDA3BA2054435020436C69656E740D0AD8
:1021500000000000250700080D0ABCB4BDABBDF8A7
:10216000D0D0B5C4B2E2CAD4CAC7A3BA322E415045
:10217000C4A3CABDA3BA20544350205365727665E8
:10218000720D0A00D10E0008E82100080D0ACAE409
:10219000C8EBB4EDCEF3A3ACB2BBBDF8D0D0B2E285
:1021A000CAD4A3A10D0A0000DDDDDDDDDCBBBBDD93
:1021B000DDDDDDDDDDDDDDDD9888888888888888E7
:1021C0007777777777888888855555566666666607
:1021D00066666666666888888333333222222222E6
:1021E000222222222228888D0D0ABCB4BDABBDF864
:1021F000D0D0B5C4B2E2CAD4CAC7A3BA332E53549E
:10220000412B4150C4A3CABDA3BA2028535441292D
:1022100054435020436C69656E74202B2028415034
:1022200029544350205365727665720D0A000000F0
:102230000D0AC7EBCAE4C8EBC4A3BFE9B5C4B2E258
:10224000CAD4C4A3CABDB5C4B1E0BAC5A3ACB1E099
:10225000BAC5C8E7CFC2A3BA202020202020202062
:102260002020202020200D0A312E535441C4A3CA1F
:10227000BDA3BA2054435020436C69656E7420207E
:102280002020202020202020202020200D0A322E57
:102290004150C4A3CABDA3BA2041502053657276F1
:1022A0006572202020202020202020202020202097
:1022B0000D0A332E5354412B4150C4A3CABDA3BAB7
:1022C00020285354412954435020436C69656E744F
:1022D000202B2028415029544350205365727665A5
:1022E0007220202020202020202020202020200DAF
:1022F0000ACAE4C8EBB8F1CABDCEAAA3BAB1E0BA23
:10230000C52BBFD5B8F1A3ACB5E3BBF7B7A2CBCD16
:102310000D0A00000D0AC7EBD3C3CAD6BBFAC1AC85
:10232000BDD3B8D5B2C5B4B4BDA8B5C45769466964
:10233000A3ACD5E2C0EFD6BBC1ACBDD3D2BBB8F61F
:10234000CAD6BBFAA3ACD7F7CEAA494430A3ACC8CF
:10235000BBBAF3D3C3CAD6BBFACDF8C2E7B5F7CA46
:10236000D4D6FACAD6D2D454435020436C69656E91
:1023700074C1ACBDD3B8D5B2C5BFAAC6F4B5C4B795
:10238000FECEF1C6F7A3A84150204950A3A9A1ADA4
:10239000A1AD0D0A000000000D0AC7EBD3C3CAD6D9
:1023A000BBFAC1ACBDD3B8D5B2C5B4B4BDA8B5C431
:1023B00057694669A3ACD5E2C0EFD6BBC1ACBDD36B
:1023C000D2BBB8F6CAD6BBFAA3ACD7F7CEAA49445B
:1023D00033A3ACC8BBBAF3D3C3CAD6BBFACDF8C2D9
:1023E000E7B5F7CAD4D6FACAD6D2D454435020435C
:1023F0006C69656E74C1ACBDD3B8D5B2C5BFAAC691
:10240000F4B5C4B7FECEF1C6F7A3A8415020495099
:10241000A3A9A1ADA1AD0D0A000000000D0AC7EBF4
:10242000CAE4C8EBD2AACFF2B6CBBFDACAD6BBFA9F
:10243000A3A8494430A3A9B7A2CBCDB5C4D7D6B77A
:10244000FBB4AEA3ACCAE4C8EBB8F1CABDCEAAA334
:10245000BAD7D6B7FBB4AEA3A8B2BBBAACBFD5B897
:10246000F1A3A92BBFD5B8F1A3ACB5E3BBF7B7A2D5
:10247000CBCD0D0A000000000D0AC7EBCAE4C8EB83
:10248000D2AACFF2B6CBBFDACAD6BBFAA3A84944C8
:1024900033A3A9B7A2CBCDB5C4D7D6B7FBB4AEA3EF
:1024A000ACCAE4C8EBB8F1CABDCEAAA3BAD7D6B7B6
:1024B000FBB4AEA3A8B2BBBAACBFD5B8F1A3A92BED
:1024C000BFD5B8F1A3ACB5E3BBF7B7A2CBCD0D0A2E
:1024D000000000000D0AC7EBCAE4C8EBB6CBBFDAB8
:1024E00049442564D2AAB7A2CBCDB5C4D7D6B7FB91
:1024F000B4AEA3ACCAE4C8EBB8F1CABDCEAAA3BAC5
:10250000D7D6B7FBB4AEA3A8B2BBBAACBFD5B8F1AF
:10251000A3A92BBFD5B8F1A3ACB5E3BBF7B7A2CB4A
:10252000CD0D0A000D0AC7EBD4DAB5E7C4D4C9CF84
:10253000BDABCDF8C2E7B5F7CAD4D6FACAD6D2D465
:1025400054435020536572766572C1ACBDD3CDF84B
:10255000C2E7A3ACB2A2CAE4C8EBB5E7C4D4B5C421
:102560004950BACDB6CBBFDABAC5A3ACCAE4C8EB02
:10257000B8F1CABDCEAAA3BAB5E7C4D449502BD38B
:10258000A2CEC4B6BABAC52BB6CBBFDABAC52BBF7A
:10259000D5B8F1A3ACB5E3BBF7B7A2CBCD0D0A001C
:1025A0000D0AC7EBCAE4C8EBD2AAB4B4BDA8B5C43F
:1025B00057694669B5C4C3FBB3C6A1A2BCD3C3DC8B
:1025C000B7BDCABDBACDC3DCD4BFA3ACBCD3C3DCDA
:1025D000B7BDCABDB5C4B1E0BAC5CEAAA3BA202062
:1025E0002020202020202020202020200D0A302004
:1025F0003D204F50454E202020202020202020200C
:10260000202020200D0A31203D2057455020202039
:1026100020202020202020202020200D0A32203DB4
:10262000205750415F50534B09202020202020206C
:1026300020202020200D0A33203D20575041325FBA
:1026400050534B20202020202020202020202020FC
:10265000200D0A34203D205750415F575041325FD2
:1026600050534B090909090909090D0ACAE4C8EBC5
:10267000B8F1CABDCEAAA3BAC3FBB3C6D7D6B7FBBF
:102680002BD3A2CEC4B6BABAC52BBCD3C3DCB7BD5C
:10269000CABDB1E0BAC52BD3A2CEC4B6BABAC52B57
:1026A000C3DCD4BFD7D6B7FB2BBFD5B8F1A3ACB52D
:1026B000E3BBF7B7A2CBCD0D0A0000000D0AC7EBB4
:1026C000CAE4C8EBD2AAB4B4BDA8B5C45769466978
:1026D000B5C4C3FBB3C6A1A2BCD3C3DCB7BDCABDDE
:1026E000BACDC3DCD4BFA3ACBCD3C3DCB7BDCABDB9
:1026F000B5C4B1E0BAC5CEAAA3BA09090909090946
:102700000D0A30203D204F50454E0909090909099D
:102710000D0A3120203D5745500909090909090DC5
:102720000A32203D205750415F50534B0909090997
:1027300009090D0A33203D20575041325F50534B59
:102740000909090909090D0A34203D205750415F44
:10275000575041325F50534B0909090909090D0AC5
:10276000CAE4C8EBB8F1CABDCEAAA3BAC3FBB3C6CC
:10277000D7D6B7FB2BD3A2CEC4B6BABAC52BBCD31F
:10278000C3DCB7BDCABDB1E0BAC52BD3A2CEC4B6B7
:10279000BABAC52BC3DCD4BFD7D6B7FB2BBFD5B8CD
:1027A000F1A3ACB5E3BBF7B7A2CBCD0D0A00000097
:1027B0000D0AC7EBCAE4C8EBD2AAC1ACBDD3B5C4FD
:1027C00057694669C3FBB3C6BACDC3DCD4BFA3AC5B
:1027D000CAE4C8EBB8F1CABDCEAAA3BAC3FBB3C65C
:1027E000D7D6B7FB2BD3A2CEC4B6BABAC52BC3DC9F
:1027F000D4BFD7D6B7FB2BBFD5B8F1A3ACB5E3BBDD
:10280000F7B7A2CBCD0D0A000D0AC7EBCAE4C8EB9F
:10281000B7FECEF1C6F7D2AABFAAC6F4B5C4B6CBEE
:10282000BFDABAC5BACDB3ACCAB1CAB1BCE4A3A8C9
:10283000307E3238383030A3ACB5A5CEBBA3BAC396
:10284000EBA3A9A3ACCAE4C8EBB8F1CABDCEAAA356
:10285000BAB6CBBFDABAC5D7D6B7FB2BD3A2CEC494
:10286000B6BABAC52BB3ACCAB1CAB1BCE4D7D6B7F5
:10287000FB2BBFD5B8F1A3ACB5E3BBF7B7A2CBCD6B
:102880000D0A0000A428000800000020300000000D
:10289000501D0008D428000830000020D008000097
:1028A000601D000800000000000000000102030499
:1028B00001020304060708090204060800000000DC
:1028C0000000000000000000000000000000000008
:0428D0000000000004
:0400000508000131BD
:00000001FF
