:020000040800F2
:1000000008040020450100083D030008E90200083B
:1000100039030008C50100081505000800000000AC
:100020000000000000000000000000006103000864
:10003000C9010008000000003F0300087504000823
:100040005F0100085F0100085F0100085F01000810
:100050005F0100085F0100085F0100085F01000800
:100060005F0100085F0100085F0100085F010008F0
:100070005F0100085F0100085F0100085F010008E0
:100080005F0100085F0100085F0100085F010008D0
:100090005F0100085F0100085F0100085F010008C0
:1000A0005F0100085F0100085F0100085F010008B0
:1000B0005F0100085F0100085F0100085F010008A0
:1000C0005F0100085F0100085F0100085F01000890
:1000D0005F0100085F0100085F0100085F01000880
:1000E0005F0100085F0100085F0100085F01000870
:1000F0005F0100085F0100085F0100085F01000860
:100100005F0100085F0100085F0100085F0100084F
:100110005F0100085F0100085F0100085F0100083F
:100120005F0100085F0100085F0100085F0100082F
:10013000DFF80CD000F018F80048004785050008EB
:10014000080400200648804706480047FEE7FEE70F
:10015000FEE7FEE7FEE7FEE7FEE7FEE7FEE7FEE777
:10016000B504000831010008064C074D06E0E068C0
:1001700040F0010394E8070098471034AC42F6D3EE
:10018000FFF7DAFFCC050008EC05000808B50121EF
:10019000082000F0D5F84FF48070ADF80000102072
:1001A0008DF8030003208DF802006946044800F032
:1001B0000CF84FF48071024800F092F808BD00007E
:1001C000000C014000BFFEE770472DE9F0410246F8
:1001D00000250026002000230024002791F803C0FA
:1001E0000CF00F0591F803C00CF0100CBCF1000FDF
:1001F00003D091F802C04CEA050591F800C0BCF1AB
:10020000000F31D0146800202BE04FF0010C0CFAE5
:1002100000F3B1F800C00CEA03069E4220D183002F
:100220004FF00F0C0CFA03F7BC4305FA03FC4CEA41
:10023000040491F803C0BCF1280F06D14FF0010C63
:100240000CFA00FCC2F814C00AE091F803C0BCF13B
:10025000480F05D14FF0010C0CFA00FCC2F810C099
:10026000401C0828D1D31460B1F800C0BCF1FF0FC6
:1002700034DD546800202EE000F1080C4FF0010836
:1002800008FA0CF3B1F800C00CEA03069E4221D133
:1002900083004FF00F0C0CFA03F7BC4305FA03FC84
:1002A0004CEA040491F803C0BCF1280F05D100F119
:1002B000080C08FA0CF8C2F8148091F803C0BCF1DD
:1002C000480F07D100F1080C4FF0010808FA0CF8AC
:1002D000C2F81080401C0828CED35460BDE8F081DD
:1002E000416170470161704700BFFEE708B5012119
:1002F000482000F025F82020ADF8000010208DF8EF
:10030000030003208DF8020069460948FFF75DFFEE
:1003100020210748FFF7E6FF2020ADF800006946DE
:100320000448FFF752FF20210248FFF7DBFF08BD1A
:10033000000C01400018014000BFFEE77047704705
:1003400029B1064A92690243044B9A6104E0034AC8
:1003500092698243014B9A6170470000001002408D
:10036000704710B500F002F810BD00000CB5002079
:10037000019000903348006840F4803031490860B3
:1003800000BF3048006800F4003000900198401C25
:100390000190009818B90198B0F5A06FF1D12948E3
:1003A000006800F4003010B10120009001E000204E
:1003B00000900098012843D12348006840F01000C5
:1003C000214908600846006820F0030008600846DC
:1003D000006840F0020008601A4840681949486007
:1003E0000846406848600846406840F480604860BD
:1003F0000846406820F47C1048600846406840F495
:10040000E81048600846006840F08070086000BF4F
:100410000C48006800F000700028F9D009484068D6
:1004200020F00300074948600846406840F0020099
:10043000486000BF0348406800F00C000828F9D16C
:100440000CBD00000010024000200240042808D12A
:100450004FF0E021096941F004014FF0E022116101
:1004600007E04FF0E021096921F004014FF0E0229C
:10047000116170477047000010B504466FF004002A
:10048000FFF7E4FFE11704EB5171C1F3C701074A1D
:1004900011701046007800EB4001C1EBC0104FF620
:1004A000FF7101EAC0000249088010BD0000002071
:1004B0000200002010B51348006840F00100114907
:1004C000086008464068104908400E4948600846E0
:1004D00000680E4908400B4908600846006820F48F
:1004E000802008600846406820F4FE0048604FF411
:1004F0001F008860FFF735FF4FF000600449086077
:1005000010BD0000001002400000FFF8FFFFF6FEE3
:1005100008ED00E000BFFEE702E008C8121F08C1B6
:10052000002AFAD170477047002001E001C1121F74
:10053000002AFBD1704700000146114A12884A4345
:100540004FF0E0235A6100229A611A46126942F084
:1005500001021A6100BF4FF0E022106900F00102B1
:100560001AB100F48032002AF5D04FF0E02212696F
:1005700022F001024FF0E0231A6100229A617047D5
:10058000020000204820FFF777FFFFF7AFFEFFF7DC
:10059000FDFD15E00B48006808B9012000E00020CF
:1005A000084908600848D0F8A00108B9012000E017
:1005B000002004490C3108604FF4FA70FFF7BCFFCB
:1005C000E8E700009481214200802142EC05000808
:1005D000000000200400000018050008F0050008D5
:1005E00004000020040400002805000800000000AA
:0400000508000131BD
:00000001FF
