:020000040800F2
:10000000E0A8002045010008E9140008B10B000831
:10001000E514000877090008D32F0008000000004D
:10002000000000000000000000000000E9160008C9
:100030007B0900080000000071150008FD1700088A
:100040005F0100085F0100085F0100085F01000810
:100050005F0100085F0100085F0100085F01000800
:100060005F0100085F0100085F0100085F010008F0
:100070005F0100085F0100085F0100085F010008E0
:100080005F0100085F0100085F0100085F010008D0
:100090005F0100085F0100085F0100085F010008C0
:1000A0005F0100085F0100085F0100085F010008B0
:1000B0005F0100085F010008951B00085F01000850
:1000C0005F0100085F0100085F0100085F01000890
:1000D0005F010008CD2C00085F0100085F010008E7
:1000E0005F0100085F0100085F0100085F01000870
:1000F0005F0100085F0100085F0100085F01000860
:100100005F0100085F0100085F0100085F0100084F
:100110005F0100085F0100085F0100085F0100083F
:100120005F0100085F0100085F0100085F0100082F
:10013000DFF80CD000F050FB0048004719E700083A
:10014000E0A800200648804706480047FEE7FEE793
:10015000FEE7FEE7FEE7FEE7FEE7FEE7FEE7FEE777
:100160003D1800083101000840EA01039B0703D055
:1001700009E008C9121F08C0042AFAD203E011F8E6
:10018000013B00F8013B521EF9D27047D2B201E0A8
:1001900000F8012B491EFBD270470022F6E710B58C
:1001A00013460A4604461946FFF7F0FF204610BDE5
:1001B000421C10F8011B0029FBD1801A704703462E
:1001C00011F8012B00F8012B002AF9D118467047CD
:1001D000F0B480EA0102D40F4200B2EB410F02D228
:1001E0000246084611464A0042D0C30DDDB2C1F3B3
:1001F000C752AD1A202D35DAC1F3160141F40002C1
:1002000004B15242C5F1200602FA06F12A41104417
:10021000B3EBD05F23D0C4B1012DA0EBC35009DCF8
:10022000F0BC4FF0004202EAC352DBB200F500001E
:1002300000F0F6B9400000F1807000EBC350A0F16F
:10024000807040EAD170490009E0490841EAC07174
:10025000A0EBC35000F50000400800EBC350F0BC19
:1002600000F0D5B96142012202EB4101001BF6E723
:10027000F0BC704781F00041AAE780F00040A7E79A
:1002800080EA010210B502F00043400022D04A008B
:100290001FD0010E01EB1261C0F35600C2F35602EB
:1002A00040F4000042F40002A0FB022000047F3969
:1002B000140400D0401C50EA124001D44000491EF2
:1002C000C2B20C0604EBD010401C4008802A02D0B9
:1002D00003E0002010BD20F00100002900DA00201A
:1002E000184310BD30B480EA010202F0004530F03E
:1002F000004221F0004013D090B1C30DD40DC2F3E1
:100300001601C0F31600E41A41F4000140F40002A3
:100310007D34914201D3641C00E04900002C02DAD4
:1003200030BC002070474FF400000023914201D3FD
:10033000891A034340084FEA4101F7D151B1914274
:1003400002D14FF0004105E002D24FF0010101E07F
:100350006FF0010103EBC450284430BC00F057B9E2
:100360002DE9FE4F81EA030404F0004421F000412E
:1003700000944FF0000B23F0004350EA01045ED0DC
:1003800052EA03045BD0C3F30A54C1F30A552C4468
:10039000A4F2F3340194A0FB0254C1F3130141F41D
:1003A0008011C3F3130343F4801301FB024400FBE9
:1003B000034E840A970A44EA815447EA8357A4FB10
:1003C000076802958D0A05FB07854FEA932C04FB0D
:1003D0000C542705029D4FEA065847EA1637B5EB3D
:1003E00008056EEB070C870E920E47EA811742EA6A
:1003F0008312A7FB0201B6EB0B0164EB00042B0D8B
:1004000043EA0C335E1844EB1C50DA465146E7FBD6
:100410000201C5F313044FEA0B3343EA14534FEAC6
:100420000432019C43EA0603A4F10C040294009CEC
:10043000CDE900B400F031F903B0BDE8F08F002041
:100440000146F9E7C10F80EAE0700844CA07962325
:10045000002100F0E5B896230022114600F0E0B834
:100460000EB540F2334102910021CDE900110A4658
:100470000B4600F012F903B000BD00F0004220F07E
:100480000040C10DC0F3160040F400007F2901DADE
:1004900000207047962903DCC1F19601C84001E0B5
:1004A00096398840002AF4D04042704720F000403E
:1004B000C10DC0F3160040F400007F2901DA0020CE
:1004C0007047962903DCC1F19601C8407047963900
:1004D00088407047C1F30A5210B5C1F3130140F2CE
:1004E000FF3341F480119A4201DA002010BD40F23E
:1004F00033439A42A2F2334203DC524200F077F8CF
:1005000010BD904010BD00F0004230F000400AD015
:10051000C10D01F56071C0F3160042EA0151C20835
:1005200040071143704700200146704730B5041E54
:1005300071F1000404DB4FF00044404264EB010120
:10054000141E73F1000405DB1C464FF000435242B9
:1005500063EB04038B4208BF824230BD30B5041EFA
:1005600071F1000404DB4FF00044404264EB0101F0
:10057000141E73F1000405DB1C464FF00043524289
:1005800063EB0403994208BF904230BD2DE9F05F50
:100590000546002092469B468846064681464024F2
:1005A0001BE0284641464746224600F020F85346C5
:1005B0005A46C01A914110D311461846224600F0FF
:1005C0001DF92D1A67EB01084F4622460120002134
:1005D00000F014F917EB00094E41201EA4F10104AC
:1005E000DFDC484631462A464346BDE8F09F202AD4
:1005F00004DB203A21FA02F00021704721FA02F3CD
:10060000D040C2F1200291400843194670470029AA
:10061000A8BF7047401C490008BF20F00100704788
:1006200010B4B0FA80FC00FA0CF050EA010404BFE8
:1006300010BC704749B1CCF1200421FA04F411FA3E
:100640000CF118BF012121430843A3EB0C01CB1D82
:100650004FEA00614FEA102042BF002010BC7047F3
:1006600000EBC35010440029A4BF10BC7047401CCD
:10067000490008BF20F0010010BC704710B5141EDF
:1006800073F1000408DA401C41F1000192185B414B
:100690001A4301D120F0010010BD2DE9F04D924622
:1006A0009B4611B1B1FA81F202E0B0FA80F2203239
:1006B000904600F0A3F804460F4640EA0A0041EADB
:1006C0000B0153465A46084313D0114653EA010022
:1006D00019D0C8F140025046FFF789FF05460E4683
:1006E00050465946424600F089F8084305D001209B
:1006F00004E020463946BDE8F08D0020054346EA77
:10070000E0762C4337430A986305E40AA0EB08001F
:100710000022FD0A44EA47540A3002D5002001466F
:10072000E9E7010510196941DDE90845001969414A
:10073000BDE8F04DA2E72DE9F04D00231A461B1A43
:100740008A4103DB00200146BDE8F08DC1F30A5267
:10075000C1F3130141F480154FF0000BD10702D112
:1007600000186D41521E0027044640F2FF11384622
:1007700001EB620A3E468046024600204FF480119B
:10078000FFF735FFC2197141BB1846EB0100B4EB0E
:10079000030C75EB000C04D3E41A65EB0005174657
:1007A0000E46241908F101006D4180463428E3DD2E
:1007B000F91946EB0600091BA84103D24FF0FF329E
:1007C000134601E0002213461BEB070046EB0A51DB
:1007D000BDE8F04DFFF752BF064C074D06E0E0685C
:1007E00040F0010394E8070098471034AC42F6D378
:1007F000FFF7A2FC3863010858630108202A04DBD4
:10080000203A00FA02F1002070479140C2F1200323
:1008100020FA03F319439040704770B58C1810F814
:10082000015B15F0070301D110F8013B2A1106D135
:1008300010F8012B03E010F8016B01F8016B5B1E4F
:10084000F9D12B0705D40023521E0DD401F8013B2A
:10085000FAE710F8013BCB1A921C03E013F8015B96
:1008600001F8015B521EF9D5A142D8D3002070BD1A
:1008700010B500F0BBF910BD2DE9F04107460C465C
:100880000026002509E036023919491B491E88B2A5
:1008900000F008F80644681CC5B2A542F3DB3046F8
:1008A000BDE8F08170B50446002600F03FFA254609
:1008B000E11704EB11610912A02202EB4101C8B259
:1008C00000F002FA00F06AFAE11704EB1161091274
:1008D000A4EB0121C8B200F0F7F900F05FFA00F0D4
:1008E00025FAA12000F0F0F900F058FA002000F0FD
:1008F000BFF9064600F036FA304670BD2DE9F041EA
:1009000005460E461746002409E0E20026FA02F2E8
:10091000D1B22A1990B200F006F8601CC4B2BC42F1
:10092000F3DBBDE8F08170B504460E4600F0FEF939
:100930002546E11704EB11610912A02202EB4101E7
:10094000C8B200F0C1F900F029FAE11704EB116117
:100950000912A4EB0121C8B200F0B6F900F01EFAAA
:10096000304600F0B1F900F019FA00F0FBF90A2066
:1009700002F0ACFE70BD00BFFEE7704751B18200CF
:10098000A2F1C042126842F001038200A2F1C0420B
:10099000136009E08200A2F1C0421268034B1A40C2
:1009A0008300A3F1C0431A6070470000FEFF0F00F0
:1009B000D0E901121143C26811430269114342692F
:1009C000114382691143C2691143026A1143426AA9
:1009D0001143826A1143C26A1143026B11430268D8
:1009E0009200A2F1C0421160816808290BD1016810
:1009F0008900A1F1C041096841F040020168890005
:100A0000A1F1C0410A60416B0968426B526841EA3A
:100A10000211426B926841EA0221426B928941EADB
:100A20000241426B128A41EA0251426B127D41EA55
:100A30000261426B926911430268521C9200A2F15A
:100A4000C0421160C16AB1F5804F1BD1816B09684A
:100A5000826B526841EA0211826B926841EA02217C
:100A6000826B128A41EA0251826B127D41EA026175
:100A7000826B9269114302689200A2F1C042C2F8EF
:100A8000041107E06FF0704201688900A1F1C041D4
:100A9000C1F8042170472DE9F041024600250026E7
:100AA000002000230024002791F803C00CF00F055C
:100AB00091F803C00CF0100CBCF1000F03D091F8BA
:100AC00002C04CEA050591F800C0BCF1000F31D01E
:100AD000146800202BE04FF0010C0CFA00F3B1F881
:100AE00000C00CEA03069E4220D183004FF00F0C99
:100AF0000CFA03F7BC4305FA03FC4CEA040491F832
:100B000003C0BCF1280F06D14FF0010C0CFA00FC19
:100B1000C2F814C00AE091F803C0BCF1480F05D137
:100B20004FF0010C0CFA00FCC2F810C0401C082861
:100B3000D1D31460B1F800C0BCF1FF0F34DD5468AC
:100B400000202EE000F1080C4FF0010808FA0CF329
:100B5000B1F800C00CEA03069E4221D183004FF099
:100B60000F0C0CFA03F7BC4305FA03FC4CEA04042F
:100B700091F803C0BCF1280F05D100F1080C08FA68
:100B80000CF8C2F8148091F803C0BCF1480F07D1EB
:100B900000F1080C4FF0010808FA0CF8C2F81080B8
:100BA000401C0828CED35460BDE8F0810161704735
:100BB00000BFFEE710B500200A49086000F082FD82
:100BC00000200949C1F89C01022002F0A5FD012086
:100BD00004490860052002F09FFD00200249C1F889
:100BE000980110BD988121420080214208B5012161
:100BF000082000F0DFFC4020ADF8000003208DF855
:100C0000020010208DF8030069460848FFF743FFF3
:100C10008020ADF8000069460448FFF73CFF012042
:100C2000034908600349C1F89C0108BD000C01405C
:100C3000988121420080214210B500200A490860B5
:100C400000F040FD01200949C1F89C01022002F09A
:100C500063FD012004490860052002F05DFD0020CD
:100C60000249C1F8980110BD9881214200802142BB
:100C700070B50546002400F017FD002616E00020A0
:100C80000F490860022002F047FD01200D49C1F81C
:100C900098016006040E0A487C38006808B1601CA0
:100CA000C4B2012002F038FD701CC6B2082EE6DB8B
:100CB00015B9FFF7C1FF01E0FFF77CFF204670BDCB
:100CC000988121420080214270B5044600F0FAFC70
:100CD000002014490860002520E004F0800000286E
:100CE00004DD01200F49091D086003E000200D49C3
:100CF000091D08606006040E022002F00DFD0120AF
:100D000008490860022002F007FD00200649C1F8EA
:100D10009801022002F000FD681CC5B2082DDCDB42
:100D200070BD0000988121420080214210B500F082
:100D3000C9FC0120094908600949C1F8980105204A
:100D400002F0EAFC002005490860062002F0E4FCFD
:100D500000200349C1F8980110BD00009C81214288
:100D60000080214210B500F0ADFC00200949086068
:100D70000949C1F89C01012006490860062002F0DB
:100D8000CBFC01200449C1F89C01062002F0C4FC00
:100D900010BD0000988121420080214210B500243E
:100DA00001200F49086002F0B7FC00F07DFC012033
:100DB0000C49C1F8980102F0AFFC07E0601CC4B216
:100DC000FA2C03DDFFF7CEFF012010BD0448803868
:100DD00000680028F2D10249091F086000BFF4E74B
:100DE0009C8121420080214208B50121442000F06D
:100DF000E1FB0120ADF8000028208DF803006946D2
:100E00000648FFF748FE1C20ADF8000048208DF88A
:100E1000030069460248FFF73EFE08BD0008014096
:100E20000018014070B506460F484088401E83B246
:100E30000D480088401E82B20021084600F062F989
:100E400000240CE0002504E0304600F01FFB681C85
:100E500085B205484088A842F6DC601C84B202488E
:100E60000088A042EEDC70BD180000202DE9F84F8C
:100E700006460F4690469946DDF828B0A8EB0600D6
:100E8000401C1FFA80FAA9EB0700401C80B20090BA
:100E9000002415E000250FE03A1991B2721990B2C2
:100EA0004B46424600F02EF904FB0A513BF8110074
:100EB00000F0ECFA681C85B25545EDDB601C84B28D
:100EC00000988442E6DBBDE8F88F000000B50246DA
:100ED0000F4882716AB9362000F0CCFA222000F067
:100EE000CFFA4FF4F0700A4948804FF488700880B8
:100EF0000CE0362000F0BEFA002000F0C1FA4FF4FA
:100F00008870034948804FF4F070088000BD0000ED
:100F10001800002070B504460D4616462B462246A2
:100F20002946204600F0EEF8304600F0AFFA70BDDA
:100F30002DE9FF4F84B081468A460020039002903D
:100F40000698A0EB09050798A0EB0A06CDF80490D7
:100F5000CDF800A0002D01DD012705E00DB9002727
:100F600002E04FF0FF376D42002E02DD4FF0010826
:100F700006E016B94FF0000802E04FF0FF38764265
:100F8000B54201DD2C4600E034464FF0000B21E075
:100F9000009A91B2019A90B200F022F80398284486
:100FA00003900298304402900398A04205DD039814
:100FB000001B03900198384401900298A04205DD7F
:100FC0000298001B02900098404400900BF1010031
:100FD0001FFA80FB601C8345DADD08B0BDE8F08FA6
:100FE00030B504460D462B4622462946204600F0E1
:100FF00089F80248008800F049FA30BD140000204A
:101000002DE9F04306460F4690460024454603204E
:10101000A0EB48093CE07A1B91B2321990B2FFF77D
:10102000DFFF3A1B91B2721990B2FFF7D9FF3A195C
:1010300091B2721990B2FFF7D3FF7A1991B23219B7
:1010400090B2FFF7CDFF7A1991B2321B90B2FFF741
:10105000C7FF3A1991B2721B90B2FFF7C1FF7A1B1A
:1010600091B2321B90B2FFF7BBFF3A1B91B2721BD9
:1010700090B2FFF7B5FF641CB9F1000F03DAA000CE
:10108000801D814404E0601B80000A3081446D1E95
:10109000AC42C0DDBDE8F08310B50246012000E09F
:1010A00050430B1EA1F10104E1B2F9D110BD0000C3
:1010B0002DE9F0470446BE2000F0DCF9052000F0E1
:1010C000DFF92046FFF7CCF907464FF066320C4BAC
:1010D000FFF746F90546FFF7FDF91FFA80F9484684
:1010E00000F0CEF9012000F0CBF9FF2000F0C8F9A4
:1010F000002000F0C5F9002000F0C2F9BDE8F0873B
:101100006666044070B504460D4650488079002854
:101110004CD12B2000F0AEF92646E11704EB11610B
:10112000C1F30F2000F0ACF9E11704EB11610912D3
:10113000A4EB012188B200F0A3F91646D11702EB07
:101140001161C1F30F2000F09BF91646D11702EB95
:1011500011610912A2EB012188B200F091F92A2055
:1011600000F088F92E46E91705EB1161C1F30F2055
:1011700000F086F9E91705EB11610912A5EB0121D1
:1011800088B200F07DF91E46D91703EB1161C1F357
:101190000F2000F075F91E46D91703EB11610912F3
:1011A000A3EB012188B200F06BF94BE02A2000F09C
:1011B00061F92646E11704EB1161C1F30F2000F03D
:1011C0005FF9E11704EB11610912A4EB012188B268
:1011D00000F056F91646D11702EB1161C1F30F204A
:1011E00000F04EF91646D11702EB11610912A2EB7D
:1011F000012188B200F044F92B2000F03BF92E4683
:10120000E91705EB1161C1F30F2000F039F9E91777
:1012100005EB11610912A5EB012188B200F030F94C
:101220001E46D91703EB1161C1F30F2000F028F916
:101230001E46D91703EB11610912A3EB012188B2F5
:1012400000F01EF92C2000F015F970BD18000020E8
:101250002DE9F84F80460E4617461C46B3462046F9
:10126000E31704EB5373DB1021464FEAE47C04EBF5
:101270005C7C4FEAEC0CA4EBCC0CBCF1000F02D070
:101280004FF0010C01E04FF0000C6344224604EBE8
:10129000D27C4FEA6C0C03FB0CF3DBB20093A7F19A
:1012A0002000C7B2002556E00C2C07D107EB470001
:1012B0002B4901EB800010F8059013E0102C05D1AC
:1012C000284800EB071010F805900BE0182C07D108
:1012D00007EBC700244901EB800010F8059001E0FE
:1012E000BDE8F88F4FF0000A2FE009F0800030B120
:1012F0001E48028831464046FFF70CFE07E00A9878
:1013000028B91B48028831464046FFF703FE4FEAE2
:1013100049604FEA1069701C86B216484088B04296
:1013200000DCDDE7A6EB0B00A0420AD15E4608F127
:1013300001001FFA80F80F480088404500DCCFE725
:1013400006E00AF1010000F0FF0ABAF1080FCCDB59
:1013500000BF681CC5B200988542A5DB00BFBFE78F
:101360007EEA0008F2EE0008E2F400081400002013
:1013700016000020180000202DE9FF4F81B007461D
:1013800091461E460E9D4FF0000A002439E0301BA6
:10139000401EC1B20A20FFF77FFEB9FBF0F00A2120
:1013A000B0FBF1F201FB1208BAF1000F16D1701E6A
:1013B000A04213DDB8F1000F0ED10020AB4605EBC3
:1013C000DB71491001FB0471009088B22B4620228A
:1013D0000299FFF73DFF12E04FF0010A0020AB46F3
:1013E00005EBDB71491001FB0471009088B208F134
:1013F0003001CAB22B460299FFF72AFF00BF601CDA
:10140000C4B2B442C3DB05B0BDE8F08F2DE9F847A4
:1014100004460D4690469946DDE9096704F0FF0A47
:1014200008EB04001FFA80F809EB05001FFA80F9A9
:1014300016E0444502DB5446A81985B24D4500DB51
:1014400014E0002000903A78334629462046FFF702
:10145000FFFE304606EBD07104EB61018CB27F1CBD
:1014600038787E2802DC38782028E2DA00BFBDE830
:10147000F88700000149088070470000FE07006CF3
:1014800001490880704700000008006C014908808D
:10149000704700000008006C08B50121482000F0EA
:1014A00089F82020ADF8000010208DF803000320FB
:1014B0008DF8020069460948FFF7EDFA2021074838
:1014C000FFF774FB2020ADF8000069460448FFF7E1
:1014D000E2FA20210248FFF769FB08BD000C014039
:1014E0000018014000BFFEE77047000070B5002102
:1014F00000230F22C47804B3154C246804F4E0647C
:10150000C4F5E064210AC1F10403CA40447804FA36
:1015100003F184781440214309010E4C0678A1554B
:10152000047804F01F050124AC4005786D11AD006E
:1015300005F1E025C5F8004109E0047804F01F0535
:101540000124AC40044D0678761145F8264070BD64
:101550000CED00E000E400E080E100E0024901431E
:10156000024A1160704700000000FA050CED00E02F
:101570007047000029B1064A52690243044B5A6180
:1015800004E0034A52698243014B5A6170470000EC
:101590000010024029B1064AD2690243044BDA61C5
:1015A00004E0034AD2698243014BDA6170470000CC
:1015B0000010024029B1064A92690243044B9A6125
:1015C00004E0034A92698243014B9A61704700002C
:1015D0000010024030B500210022002400232D4DD0
:1015E0006D6805F00C0121B1042905D0082923D12B
:1015F00005E0294D056022E0274D05601FE0254DDF
:101600006D6805F47012234D6D6805F48034022571
:1016100005EB92421CB9214D554305600BE01D4D71
:101620006D6805F400351DB11C4D5543056002E0A1
:10163000194D5543056002E0174D056000BF00BF1E
:10164000144D6D6805F0F0010909154D6B5C0568D6
:10165000DD4045600F4D6D6805F4E061090A104DED
:101660006B5C4568DD4085600A4D6D6805F460512E
:10167000C90A0B4D6B5C4568DD40C560054D6D6862
:1016800005F44041890B074D6B5CC568B5FBF3F56C
:10169000056130BD0010024000127A0000093D00D3
:1016A000000000201000002008B58020ADF80000E8
:1016B00048208DF8030069460148FFF7ECF908BDA2
:1016C000000C014008B58020ADF8000003208DF823
:1016D000020010208DF8030069460248FFF7DBF98D
:1016E00008BD0000000C0140704710B500F002F882
:1016F00010BD00000CB50020019000903348006838
:1017000040F480303149086000BF3048006800F480
:10171000003000900198401C0190009818B9019881
:10172000B0F5A06FF1D12948006800F4003010B185
:101730000120009001E0002000900098012843D192
:101740002348006840F010002149086008460068FE
:1017500020F0030008600846006840F002000860BE
:101760001A48406819494860084640684860084679
:10177000406840F4806048600846406820F47C106F
:1017800048600846406840F4E81048600846006831
:1017900040F08070086000BF0C48006800F00070E6
:1017A0000028F9D00948406820F003000749486044
:1017B0000846406840F00200486000BF03484068A7
:1017C00000F00C000828F9D10CBD00000010024008
:1017D00000200240042808D14FF0E021096941F0BF
:1017E00004014FF0E022116107E04FF0E0210969A8
:1017F00021F004014FF0E0221161704770470000B2
:1018000010B504466FF00400FFF7E4FFE11704EBA6
:101810005171C1F3C701074A11701046007800EBFF
:101820004001C1EBC0104FF6FF7101EAC000024950
:10183000088010BD6A0000206C00002010B513481D
:10184000006840F0010011490860084640681049EE
:1018500008400E494860084600680E4908400B4998
:1018600008600846006820F4802008600846406848
:1018700020F4FE0048604FF41F008860FFF735FF3A
:101880004FF000600449086010BD000000100240E5
:101890000000FFF8FFFFF6FE08ED00E000B59DB088
:1018A00001210802FFF766FE012007900020089042
:1018B0000F20099000200A900B900C900D9015209D
:1018C0000090019005200290002003900490059064
:1018D000069006200E9000200F901090102011907E
:1018E0000020129014901390159016904FF4805091
:1018F0001790002018904FF48040199000201A9003
:1019000007A81B90CDF870D00EA8FFF751F8012161
:101910000620FFF733F81DB000BD000008B5012117
:101920004FF4B470FFF746FE4CF23370ADF8000090
:1019300018208DF8030003208DF80200694618482E
:10194000FFF7A9F84FF68070ADF8000018208DF869
:10195000030003208DF8020069461248FFF79BF848
:1019600041F20100ADF8000018208DF803000320BB
:101970008DF8020069460C48FFF78DF80120ADF89C
:10198000000010208DF8030003208DF80200694646
:101990000648FFF780F801200549086008BD0000EF
:1019A000001401400018014000200140000C0140DB
:1019B0008081214210B5FFF7B1FFFFF76FFF3220A2
:1019C00001F084FE6E4881886EA001F005FBE220E4
:1019D000FFF750FD2C20FFF753FD0220FFF750FDCD
:1019E0000420FFF74DFDE020FFF744FD0120FFF745
:1019F00047FD012001F06AFEE020FFF73BFD0320D8
:101A0000FFF73EFD052001F061FE0120FFF732FDEA
:101A10000A2001F05BFEE620FFF72CFD0120FFF716
:101A20002FFD3320FFF72CFD3220FFF729FDB020DA
:101A3000FFF720FD2020FFF723FD0020FFF720FD0A
:101A40000120FFF71DFD40F2DF10FFF719FD012017
:101A5000FFF716FD40F20F10FFF712FD0020FFF711
:101A60000FFDB420FFF706FD0220FFF709FD40F24D
:101A70000D20FFF705FD0020FFF702FD2B20FFF7EB
:101A8000FFFC2A20FFF7FCFC0020FFF7F9FC0120F7
:101A9000FFF7F6FC0020FFF7F3FCB620FFF7EAFCA7
:101AA0000120FFF7EDFC4FF49070FFF7E9FC0020F8
:101AB000FFF7E6FC0C20FFF7E3FC0B20FFF7E0FC50
:101AC0000020FFF7DDFC0120FFF7DAFCB820FFF76C
:101AD000D1FC0F20FFF7D4FC0120FFF7D1FCBA2086
:101AE000FFF7C8FC0120FFF7CBFC3620FFF7C2FC54
:101AF0000020FFF7C5FCF020FFF7BCFC0320FFF738
:101B0000BFFC2120FFF7B6FCBC20FFF7B3FC802010
:101B1000FFF7B6FC8020FFF7B3FC8020FFF7B0FC96
:101B20000120FFF7ADFC0A2001F0D0FD2920FFF7CE
:101B3000A1FCBE20FFF79EFC0E20FFF7A1FCFF20BA
:101B4000FFF79EFC0920FFF79BFCFF20FFF798FCA6
:101B50000020FFF795FC0020FFF792FCD020FFF754
:101B600089FC0D20FFF78CFC6420FFF7A1FA002010
:101B7000FFF7ACF94FF6FF70FFF754F910BD000006
:101B800018000020204C43442049443A25780D0A8F
:101B90000000000010B50121054800F04EF810B11A
:101BA00001200CF03FFA0121014800F037F810BD88
:101BB000000800407FB505460C4601210420FFF7D0
:101BC000E9FCADF80850ADF804400020ADF80A007B
:101BD000ADF8060001A9104800F04AF801221146AC
:101BE0000D4800F03BF801210B4800F017F81E20CB
:101BF0008DF8000002208DF8010003208DF802000E
:101C000001208DF803006846FFF770FC01210248AF
:101C100000F007F87FBD000000080040CA430282C0
:101C2000704721B1028842F00102028004E002887C
:101C30004FF6FE731A400280704730B5024600200E
:101C400000230024158A05EA0103958905EA0104A9
:101C500013B10CB1012000E0002030BD1AB183891E
:101C60000B43838102E083898B43838170470000AB
:101C7000002202881D4B98420ED01D4B98420BD07B
:101C8000B0F1804F08D01B4B984205D01A4B9842B8
:101C900002D01A4B984204D14FF68F731A404B88EA
:101CA0001A43174B984207D0164B984204D04FF670
:101CB000FF431A40CB881A4302808B8883850B88A8
:101CC00003850A4B98420BD0094B984208D00E4B23
:101CD000984205D00D4B984202D00D4B984201D14D
:101CE0000B7A03860123838270470000002C014099
:101CF000003401400004004000080040000C004097
:101D00000010004000140040004001400044014029
:101D1000004801402DE9FC5F04460D4617461E466B
:101D2000DDE90EABDDE90C894FF4784057490880B6
:101D300057A01021CDE90010564843880288A02101
:101D40002820FFF763FB54A01021CDE90010514873
:101D500043880288A0217820FFF758FB4FA010216C
:101D6000CDE900104B4843880288B4212820FFF7B2
:101D70004DFB4BA01021CDE9001046484388028856
:101D8000B4217820FFF742FB46A01021CDE90010D6
:101D9000404843880288C8212820FFF737FB42A02B
:101DA0001021CDE900103B4843880288C8217820E3
:101DB000FFF72CFB3DA01021CDE9001035484388EA
:101DC0000288DC212820FFF721FB39A01021CDE972
:101DD0000010304843880288DC217820FFF716FB8A
:101DE00034A01021CDE900102A4843880288F02150
:101DF0002820FFF70BFB102004232246A02100908F
:101E00004020FFF7B9FA102004232A46A0210090B1
:101E10009020FFF7B1FA102004233A46B421009035
:101E20004020FFF7A9FA102004233246B421009085
:101E30009020FFF7A1FA102004234246C821009009
:101E40004020FFF799FA102004234A46C821009049
:101E50009020FFF791FA102004235246DC210090D5
:101E60004020FFF789FA102004235A46DC21009015
:101E70009020FFF781FA102003230090F0216020CA
:101E8000109AFFF779FABDE8FC9F000014000020CB
:101E900078313A001800002079313A0078323A005F
:101EA00079323A0078333A0079333A0078343A009C
:101EB00079343A006661632069733A0000B597B0DF
:101EC000002012900B9012901F20FE4908804FF6C0
:101ED000FF70FD490880FEF7A5FF4FF47840F949EF
:101EE00008804FF6FF70FEF79DFF0020F54908803F
:101EF000F648006810216423A022CDE900102821B3
:101F00000846FFF783FA4FF478421421084600F0A0
:101F100003FC0020EE4988868863D0E3EC484068E3
:101F20000A9001200A998847E94890F8340000F0A7
:101F3000C00040287AD100200B90E548808E20F028
:101F40004000E34988860846818913AA129822F83E
:101F50002010DF48018C129802EB8000418012981B
:101F6000401CC0B212901298012806D0022815D049
:101F7000032829D0042810D141E04FF6FF72142124
:101F8000084600F0C9FBD3480088143880B24FF4EB
:101F9000784214210A9000F0BFFB80E3CD4800880E
:101FA000143880B24FF6FF7214210A9000F0B4FB8F
:101FB000C8484088143880B24FF4784201460A90ED
:101FC000142000F0A9FB6AE3C2484088143880B2AC
:101FD0004FF6FF7201460A90142000F09DFBBD48A9
:101FE0004088143880B20A90BA480088143880B209
:101FF0004FF4784209900A9900F08EFB4FE3BDF848
:102000004C00BDF85010401A0A90002801DB0A98D5
:1020100001E00A9840420F90BDF84E1013A8C08806
:10202000081A0A90002802DB0A9802E038E30A98AE
:1020300040420E900F9840430F900E9840430E90F0
:10204000DDE90E1008440590FEF70AFACDE9060115
:102050000CF019FCCDE90801FEF73CFA80B21190B2
:10206000BDF85400BDF85810401A0A90002801DB52
:102070000A9801E00A9840420F9013A84189C0894C
:10208000081A0A90002801DB0A9801E00A984042E9
:102090000E900F9840430F900E9840430E90DDE94C
:1020A0000E1008440590FEF7DBF9CDE906010CF0AF
:1020B000EAFBCDE90801FEF70DFA80B21090109806
:1020C000FEF7C9F909901198FEF7C5F9089009992A
:1020D000FEF708F90A90FEF716FACDE90C014FF069
:1020E00066327D4BDDE90C01FEF720FA0AD37B4A0C
:1020F0007B4BDDE90C01FEF731FA03D3119808B1EF
:102100001098E8BB0020129072484088143880B2C2
:102110000A9070480088143880B24FF6FF72099018
:102120000A9900F0F9FA4FF478421421084600F0B9
:10213000F3FA00226B4BDDE90C01FEF711F9CDE952
:102140000801FEF7C7F980B213A90A90C989BDF842
:10215000582013AB5B89CDE90132CDE90310BDF8FE
:102160005400009013A8C0880990BDF85000089052
:10217000BDF84E000790BDF84C00069007A900E09E
:1021800003E00EC9FFF7C6FD99E2BDF84C00BDF8AB
:102190005410401A0A90002801DB0A9801E00A98BE
:1021A00040420F90BDF84E1013A84089081A0A90BB
:1021B000002801DB0A9801E00A9840420E900F982F
:1021C00040430F900E9840430E90DDE90E100844F6
:1021D0000590FEF745F9CDE906010CF054FBCDE979
:1021E0000801FEF777F980B21190BDF85000BDF8F4
:1021F0005810401A0A90002801DB0A9801E00A985A
:1022000040420F9013A8C188C089081A0A9000287C
:1022100001DB0A9801E00A9840420E900F98404373
:102220000F900E9840430E90DDE90E100844059083
:10223000FEF716F9CDE906010CF025FBCDE9080102
:10224000FEF748F980B210901098FEF704F9099053
:102250001198FEF700F908900999FEF743F80A90E3
:10226000FEF751F9CDE90C014FF066321A4BDDE96A
:102270000C01FEF75BF906D3184A194BDDE90C0196
:10228000FEF76CF954D2002012901248408814389E
:1022900080B20A900F480088143880B24FF6FF725F
:1022A00009900A9900F038FA4FF478421421084650
:1022B00000F032FA00220B4BDDE90C01FEF750F87A
:1022C00012E00000140000201600002098330108DE
:1022D00020000020180000206666EE3FCDCCCCCC5C
:1022E000CCCCF03F00005940CDE90801FEF7F2F8F0
:1022F00080B213A90A90C989BDF8582013AB5B8935
:10230000CDE90132CDE90310BDF85400009013A8C7
:10231000C0880990BDF850000890BDF84E000790A5
:10232000BDF84C00069007A90EC9FFF7F3FCC6E103
:10233000BDF85000BDF85410401A0A90002801DB87
:102340000A9801E00A9840420F9013A8C18840897A
:10235000081A0A90002801DB0A9801E00A98404216
:102360000E900F9840430F900E9840430E90DDE979
:102370000E1008440590FEF773F8CDE906010CF045
:1023800082FACDE90801FEF7A5F880B21190BDF8F8
:102390004C00BDF85810401A0A90002801DB0A983A
:1023A00001E00A9840420F90BDF84E1013A8C08972
:1023B000081A0A90002801DB0A9801E00A984042B6
:1023C0000E900F9840430F900E9840430E90DDE919
:1023D0000E1008440590FEF743F8CDE906010CF015
:1023E00052FACDE90801FEF775F880B21090109806
:1023F000FEF731F809901198FEF72DF80890099929
:10240000FDF770FF0A90FEF77EF8CDE90C014FF062
:102410006632AD4BDDE90C01FEF788F806D3AB4A16
:10242000AB4BDDE90C01FEF799F840D20020129089
:10243000A8484088143880B20A90A648008814380A
:1024400080B24FF6FF7209900A9900F065F94FF4D7
:1024500078421421084600F05FF900229E4BDDE926
:102460000C01FDF77DFFCDE90801FEF733F880B2DE
:1024700013A90A90C989BDF8582013AB5B89CDE92F
:102480000132CDE90310BDF85400009013A8C088B4
:102490000990BDF850000890BDF84E000790BDF8B7
:1024A0004C00069007A90EC9FFF734FC07E1BDF800
:1024B0005000BDF84C10401A0890FDF7C3FF0A9079
:1024C0008448008828380890FDF7BCFF09900A99D5
:1024D000FDF708FF81498863BDF85000BDF84C1036
:1024E00008440590FDF7AEFF06907C48806B0146DE
:1024F00005900698FDF7C4FE08907648008806907F
:10250000FDF7A9FF07900899FDF7B4FE4FF0804151
:102510000990FDF7E7FE0A90FDF7AFFF00B26F49A3
:10252000A1F8400013A84089BDF84E10401A089049
:10253000FDF788FF0A906748408828380890FDF723
:1025400081FF09900A99FDF7CDFE6449C86313A87D
:102550004089BDF84E1008440590FDF773FF0690C2
:102560005E48C06B014605900698FDF789FE08900D
:10257000584840880690FDF76EFF07900899FDF7D0
:1025800079FE4FF080410990FDF7ACFE0A90FDF70F
:1025900074FF00B25149A1F842000846806B0890D0
:1025A000FDF76BFF0990002801DB099801E009980D
:1025B000404202280DDC4948C06B0890FDF75DFFE2
:1025C0000A90002801DB0A9801E00A98404202289C
:1025D00042DD002012903F484088143880B20A90B3
:1025E0003C480088143880B24FF6FF7209900A996F
:1025F00000F092F84FF478421421084600F08CF86D
:1026000037A01021CDE90010324840880A903148A7
:102610000088099002461A2128200A9BFEF7F6FE40
:102620002E4890F8440008B9012000E000202B4912
:1026300081F84400084690F8440030B190202D49BC
:102640000870D0202C49087005E0D0202949087076
:1026500090202949087032E01F20284908804FF651
:10266000FF70FEF7DFFB26A01021CDE9001019480E
:1026700040880A9017480088099002466E2123205E
:102680000A9BFEF7C3FE4FF47A7001F01FF800F0CA
:1026900037FA4FF6FF70FEF7C5FB17B000BD00BF5D
:1026A0000A2001F013F80B98401C80B20B900B9895
:1026B000B0F57A7F02DD00F067F801E000BF2DE49D
:1026C00000BF00BFE9E700006666EE3FCDCCCCCC92
:1026D000CCCCF03F18000020000059402000002022
:1026E0005450204E65656420726561646A75737428
:1026F0002100000068000020690000201400002074
:10270000546F7563682053637265656E2041646A17
:10271000757374204F4B210070B504460D46164664
:102720001848068004F10D018AB2193988B22B4687
:102730002946FEF7FDFB05F10D0083B2193881B281
:1027400022462046FEF7F4FB6A1C91B2621C90B24E
:10275000FEF746FC6A1C91B2621E90B2FEF740FC86
:102760006A1E91B2621C90B2FEF73AFC6A1E91B2E8
:10277000621E90B2FEF734FC062229462046FEF780
:102780003FFC70BD1400002070B5D520FEF78AF81C
:1027900004460A2C44D10421C820FEF76DF80446F3
:1027A0002046FDF74FFE05461E49FDF79BFD1E49DD
:1027B00088630421CC20FEF75FF804462046FDF72D
:1027C00041FE05461749FDF78DFD1749C8630221F3
:1027D000D020FEF751F800B21349A1F840000221C1
:1027E000D220FEF749F800B20F49A1F84200D420E8
:1027F000FEF758F80C4981F84400084690F8440068
:1028000030B1902009490870D0200949087005E0CE
:10281000D02006490870902005490870012070BD3D
:102820000020FCE720BCBE4C2000002068000020F7
:102830006900002008B501218820FEF7BBFE0220B8
:10284000ADF8000010208DF8030003208DF8020081
:1028500069462848FEF71FF902212648FEF7A6F927
:102860000420ADF8000048208DF803006946214897
:10287000FEF711F904211F48FEF798F94FF4206084
:10288000ADF8000010208DF8030003208DF8020041
:1028900069461948FEF7FFF84FF420611648FEF725
:1028A00085F94FF48060ADF8000048208DF80300F2
:1028B00069461148FEF7EFF84FF480610E48FEF7C5
:1028C00075F90E49A1F1140000F0A2F8FDF7D0FF50
:1028D000FFF75AFF08B1002008BD4FF6FF70FEF762
:1028E000A1FAFFF7EBFA00F00BF9FFF74DFF01201B
:1028F000F2E70000000C0140001C014040000020F5
:1029000070B506460025002400201E4908601E49B7
:10291000C1F8A4011D490860304600F0B1F9062055
:1029200000F0FAFE00201A49C1F88401012000F0ED
:10293000F3FE01201349086000F0EEFE0020144968
:10294000C1F8840100BF15E04FF6FF7000EA4404AF
:1029500000200C490860012000F0DEFE01200C4937
:10296000C1F8840107487C38006808B1601C84B253
:10297000681CC5B2102DE7DB241101200349086053
:10298000204670BD8481214200802342AC812342D5
:10299000008021422DE9F04194B0804600270024B8
:1029A00006E04046FFF7ACFF2DF81400601C84B22F
:1029B000282CF6DB002416E0601C85B20FE03DF801
:1029C00014003DF81510884207DD3DF814603DF80D
:1029D00015002DF814002DF81560681C85B2282DFF
:1029E000EDDB601C84B2272CE6DB0027012404E029
:1029F0003DF814000744601C84B2272CF8DB262025
:102A0000B7FBF0F086B2304614B0BDE8F0810000AC
:102A10002DE9F04104460D4607480078FFF7BAFF5C
:102A2000064606480078FFF7B5FF074626802F8048
:102A30000120BDE8F081000068000020690000204E
:102A40007FB504460D4602A903A8FFF7E1FF06463D
:102A500016B9002004B070BD694601A8FFF7D8FF81
:102A600006460EB90020F5E7BDF80400BDF80C10CD
:102A7000884206DCBDF80C10BDF8040032308142FB
:102A80000CDBBDF80C00BDF80410884236DCBDF844
:102A90000410BDF80C00323081422FDABDF800007E
:102AA000BDF80810884206DCBDF80810BDF800002B
:102AB000323081420CDBBDF80800BDF800108842BE
:102AC0001CDCBDF80010BDF808003230814215DA78
:102AD000BDF80C10BDF80420881800EBD071C1F3CC
:102AE0004F012180BDF80810BDF80020881800EBC8
:102AF000D071C1F34F0129800120ABE70020A9E785
:102B000070B51B49886B1B49FDF7BAFB0546FDF7FD
:102B1000B4FC044604222146C820FDF7EFFE144908
:102B2000C86B1449FDF7ACFB0546FDF7A6FC04464F
:102B300004222146CC20FDF7E1FE0D48B0F94010FB
:102B40000222D020FDF7DAFE0948B0F94210022235
:102B5000D220FDF7D3FE064890F84410D420FDF7AC
:102B6000E2FE0A242146D520FDF7DDFE70BD0000FF
:102B70002000002020BCBE4C2DE9F04104463E4818
:102B80000068002855D12CB13C49A1F11400FFF791
:102B900057FF3DE03949A1F11400FFF751FFB8B3E9
:102BA00036492039B1F94000FDF74CFC074633495E
:102BB00020398889FDF74FFC804630482038816BEA
:102BC0004046FDF75DFB06463946FDF701FB05462D
:102BD000FDF76CFC294920398881B1F94200FDF7E5
:102BE00031FC074625492039088CFDF734FC804626
:102BF00022482038C16B4046FDF742FB0646394665
:102C0000FDF7E6FA0546FDF751FC1C49203908841A
:102C10001A48203890F8340000F0800020BBC02013
:102C2000164920398886084681898182018C018570
:102C30001AE01248203890F8340000F0800040B1CB
:102C40000E482038808E20F080000C49203988867C
:102C50000AE0002109482038818201854FF6FF7083
:102C600006492039888108840448203890F83400C7
:102C700000F08000BDE8F081288123424000002060
:102C800070B50446002500BF17E004F0800018B1BD
:102C900001200B49086002E0002009490860600635
:102CA000040E002007490860012000F035FD0120D6
:102CB0000549C1F88401681CC5B2082DE5DB70BD6B
:102CC000A4812342848121420080214210B540F238
:102CD00025511D4800F0B8F810B31B4800F070F9FA
:102CE000C4B21A48008800F40040C8B917480088E8
:102CF00000F4804060B10A2C03D000201349088002
:102D000020E01248008840F400401049088019E093
:102D10000D2C06D10D48008840F480400B490880F6
:102D200010E00A480088C0F30D0009490C54074818
:102D30000088401C0549088008460088C72801DD36
:102D40000020088010BD0000003801406E00002007
:102D5000A801002010B586B0044601210420FEF72A
:102D600029FC01218803FEF725FC4FF40070ADF823
:102D7000140003208DF8160018208DF8170005A9FF
:102D80001E48FDF788FE4FF48060ADF81400042063
:102D90008DF8170005A91948FDF77DFE0194002064
:102DA000ADF80800ADF80A00ADF80C00ADF8100061
:102DB0000C20ADF80E0001A9114800F095F8012192
:102DC0000F4800F028F840210D4800F01BF80122C0
:102DD00040F225510A4800F061F825208DF80000E6
:102DE00003208DF801008DF8020001208DF803000A
:102DF0006846FEF77BFB06B010BD000000080140EE
:102E00000038014001F40072B2F5007F00D100BF2C
:102E1000CA430280704721B1828942F40052828104
:102E200004E082894DF6FF731A40828170470246A2
:102E30000020B1F5007F00D100BF13880B400BB11B
:102E4000012000E00020704770B5024600240023F6
:102E50000025002040F66A16B14200D100BFC1F340
:102E6000421501F01F03012606FA03F3012D02D1DA
:102E70009689334006E0022D02D1168A334001E0E4
:102E8000968A33400C12012606FA04F41688344060
:102E900013B10CB1012000E0002070BDF0B5034675
:102EA000002400260025002040F66A17B94200D110
:102EB00000BF1846C1F3421401F01F06012707FAAC
:102EC00006F5012C01D10C3004E0022C01D11030A8
:102ED00000E014301AB107682F43076002E007686A
:102EE000AF430760F0BD00002DE9F04786B005460E
:102EF0000E460024A24600BFA1460027B08900B1BB
:102F000000BF2F462C8A4CF6FF700440F088044323
:102F10002C82AC894EF6F3100440B0883189084306
:102F2000718908430443AC81AC8A4FF6FF400440EA
:102F3000B0890443AC8201A8FEF74CFB1F488742CE
:102F400002D1DDF810A001E0DDF80CA0A88900F4A2
:102F5000004040B10AEBCA0000EB0A10316849009A
:102F6000B0FBF1F807E00AEBCA0000EB0A10316889
:102F70008900B0FBF1F86420B8FBF0F004012009EF
:102F8000642101FB1089A88900F4004040B132207F
:102F900000EBC900B0FBF1F000F00700044308E0CB
:102FA000322000EB09106421B0FBF1F000F00F00BB
:102FB00004432C8106B0BDE8F087000000380140D2
:102FC00001468888C0F308007047C1F30802828078
:102FD000704700BFFEE700000FB4054B10B503A912
:102FE000044A029800F032F810BC5DF814FB0000AF
:102FF000113F0008A00100200FB4084B10B504A930
:1030000002AA039800F022F8044602A9002000F06A
:103010007DF9204610BC5DF814FB00000D3300085C
:1030200002E008C8121F08C1002AFAD17047704791
:10303000002001E001C1121F002AFBD170470000EF
:103040000149086070470000A40100202DE9FF4FEE
:103050008DB09B460F460446002606E025280BD07F
:103060005A460F999047641C761C20780028F5D1A9
:1030700011B03046BDE8F08F0025A84601229849DE
:1030800000E0054314F8013F203B02FA03F0084238
:10309000F7D120782E2817D114F8010F45F0040538
:1030A0002A280ED06FF02F022078A0F130010929D4
:1030B0000AD808EB880102EB410100EB0108641C0F
:1030C000F2E757F8048B641C20786C280DD004DCE0
:1030D0004C2812D06A2811D104E074280DD07A2827
:1030E0000CD10AE045F4001507E0617845F480153D
:1030F000814202D1641C05F58015641C2278692A7E
:1031000045D008DC002AB3D0582A69D0632A10D0F1
:10311000642A08D13BE0702A67D0732A13D0752A3D
:103120005CD0782A5CD010465A460F999047761C9E
:10313000D3E017F8040B8DF8000000208DF8010093
:10314000E946012003E057F8049B4FF0FF30690780
:103150004FF0000501D40AE06D1C45450DDA8542AB
:10316000FADB19F805100029F6D106E06D1C85423E
:10317000FCDB19F805100029F8D12E4404E019F8F9
:10318000010B5A460F9990476D1EF8D2A5E00A2010
:103190000021CDE90801C5F3025002280DD001CF6E
:1031A000C117031E71F100030DDA4FF0000CD0EBD4
:1031B0000C006CEB01012D2308E0FF1D27F0070731
:1031C000F7E80201EDE72B0504D52B238DF8283015
:1031D00001233BE0EB0739D02023F7E70A2000E08A
:1031E00010200021CDE9080107E01020002145F062
:1031F0000405CDE908014FF00808C5F30250022884
:103200000FD001CF00214FF0000A2B071FD5702AE5
:103210000DD0DDE908C38CF0100C5CEA030C0CD077
:1032200015E0FF1D27F00707F7E80201EBE7402252
:103230008DF828204FF0010A0BE050EA010306D078
:1032400030238DF828308DF8292002239A46582AF9
:1032500004D024A20DF120090B9209E026A2F9E77F
:10326000DDE90823FDF792F90B9B9B5C09F8013D12
:1032700050EA0102F4D1ADEB090020300890680754
:1032800001D44FF001080899884502DDA8EB010040
:1032900000E000208046002506E00AA85A46405D6E
:1032A0000F9990476D1C761C5545F6DB04E03020E5
:1032B0005A460F999047761CB8F10001A8F1010811
:1032C000F5DC05E019F8010B5A460F999047761C7A
:1032D0000899481E08900029F4DC641CC5E600002B
:1032E00009280100303132333435363738396162DC
:1032F00063646566000000003031323334353637A0
:103300003839414243444546000000000A68531CD6
:103310000B6010707047000010B58AB0044694F836
:103320002000C0F3400020B994F8200000F0010014
:1033300070B194F82000C0F34000F0B994F8200078
:1033400000F00100C8B194F82000C0F38000A0B1E3
:103350002422214601A8FCF707FF2146194808F05E
:10336000A0FD204608F008FE0120174908700498C7
:1033700010B101A8049988471FE0E08B404200B2D9
:10338000608394F8200000F00100B0B194F82010A0
:10339000C1F3800119B9A18B494209B2618310348C
:1033A000217C8908C943227C61F38202227420684F
:1033B000616821606060103C00BF034800780AB07B
:1033C00010BD0000B8050020F00000202DE9F041FC
:1033D00007462F4808F07EFC044608E0206A20F0EB
:1033E0000800206221462A4808F079FC0446002C97
:1033F000F4D1284800680AF0F7FD0646244808F092
:1034000069FC04463CE000202349087094F8200041
:10341000C0F3C00038BB206A20F0080008302062EA
:10342000608B304400B26083B4F91A0000281ADBC4
:10343000B4F91A00218B884202DD208B00B2608330
:103440002046A16888470546606818B129B2D4E9CA
:1034500000029047B4F91A00218B884202DB204613
:10346000FFF75AFF00BF0C48007820B1084808F069
:1034700031FC044604E02146054808F030FC0446CF
:10348000002CC0D10AF0BEFD02490860BDE8F08101
:10349000B8050020EC000020F000002030B5034605
:1034A000022B04D10E48405C5043001230BD032B68
:1034B00004D10C48405C50430012F7E7042B04D1C0
:1034C0000948405C50430012F0E7C1EBC105581EAB
:1034D000B5FBF0F0C4B20548005D5043000AE5E7D3
:1034E000D6330108D8330108DB330108DF33010884
:1034F0002DE9FF5F06460F4606F1100102A802F013
:1035000008F90021304602F05EFB8046BDF8081045
:10351000B8F81A00084400B2ADF80800BDF80C1065
:10352000B8F81C00081A00B2ADF80C00304600F0E4
:103530001BFE718A4418304600F010FD2118B8F8BF
:103540001600081A00B2ADF80A00394602A802F0C7
:10355000A9F900287ED0BDF90C00BDF90810401A69
:10356000401C072190FBF1F000B20190BDF90E0064
:10357000BDF90A10401A401C062190FBF1F000B280
:1035800000904FF00009B7F90000BDF90810411A8A
:10359000019891FBF0F000F0FF09B9F1060F01DD91
:1035A0004FF006094FF0000AB7F90200BDF90A1002
:1035B000411A009891FBF0F000F0FF0ABAF1050FF4
:1035C00001DD4FF0050A0025CAEBCA004844C5B228
:1035D000304609F00BFB044694F90610A08801223E
:1035E00000F0CEFCA84224DDA188A079012800D1FA
:1035F00000E00020081AE081A079012801D10C2008
:1036000002E094F90600401E41B2217494F91010B2
:10361000E08900F027FE834694F90610A088012275
:1036200000F0AEFCABEB0000401C284441B26174DA
:1036300046E094F90610A088012200F0A1FC834620
:1036400094F90610A08800F00DFE5844A84210DD41
:10365000A08800E038E0E081A179217494F9061097
:10366000A088012200F08CFC691C081A41B2617428
:1036700026E02A2D24DAA188A0790C2801D1012086
:1036800000E000200844E081A0790C2801D101204D
:1036900002E094F90600401C41B2217494F906102E
:1036A000A088012200F06CFC691CA1EB000B94F9CE
:1036B0000610A08800F0D6FDABEB000041B26174AB
:1036C000012004B0BDE8F09F0020FAE70146114A4E
:1036D00012884A434FF0E0235A6100229A611A4649
:1036E000126942F001021A6100BF4FF0E022106936
:1036F00000F001021AB100F48032002AF5D04FF038
:10370000E022126922F001024FF0E0231A61002248
:103710009A6170476C0000200146114A12784A43B2
:103720004FF0E0235A6100229A611A46126942F072
:1037300001021A6100BF4FF0E022106900F001029F
:103740001AB100F48032002AF5D04FF0E02212695D
:1037500022F001024FF0E0231A6100229A617047C3
:103760006A000020F8B506460C4615460095E78825
:10377000BBB2A788BAB26788B9B22788B8B2FDF7DA
:1037800075FB304602F074FEF8BD70472DE9F04F2E
:1037900089B006468846304609F028FA0446304685
:1037A00009F038FA0890606AB0F91A90304609F0CA
:1037B00091FA0146606A408B091A606A808B081A88
:1037C00007B2072097FBF0F00FFA80FA304600F0BE
:1037D000CBFC718A0144606AC08A084400B2ADF82B
:1037E0001A00616A486A06F0CFFBBDF81A10084457
:1037F00000B2ADF81E00002527E007FB05F0072109
:10380000B0FBF1F0318A0844484400B2ADF818002A
:10381000BDF818005044401E00B2ADF81C00E9B2DB
:10382000304600F087FB834600204FF6FF71CDE95C
:103830000201CDE904100420CDE900B0626A4146DE
:1038400006A8089B03F02CF86D1C072DD5D309B0F2
:10385000BDE8F08F2DE9F34F93B08146484609F05B
:10386000C5F904460021484602F0ADF90546484630
:1038700009F0D0F91090484600F076FCB9F8121023
:103880000144606AC08A01EB0008616A486A06F078
:103890007BFB08EB0001606A008B084400B2ADF8C6
:1038A0004600686A06F070FBBDF84610084400B296
:1038B000ADF84A00484609F00DFA0146688B091A2E
:1038C000A88B081A00B20F90B9F81600BDF8461080
:1038D000411A288B081A00B20E9007210F9890FB0E
:1038E000F1F000B20D90686A06F04EFB06220E99C8
:1038F00002FB1010052190FBF1F000B20C9094F93E
:103900000610A088012200F03BFB0B900B9818B921
:10391000012701260A950DE0002694F90620511E84
:10392000A08800F09FFC07460B98401E381AC7B2CB
:10393000E06A0A9000200990A0882188884207D177
:1039400094F9060094F90210884201D101200990EF
:103950000020079083462EE10998002847D0012EC9
:1039600008D194F90300B84204DB94F90310F81D60
:1039700081420ADBD6BB94F903100B98C0F1070013
:10398000814234DCBBF1000F31D111A905A801F04F
:10399000C0FEB9F81010688B0144206B408B081AE8
:1039A00000B2ADF81400B9F81410A88B091A206BF6
:1039B000808B084400B2ADF81800BDF81610206BDB
:1039C000C08A081A00B2ADF81600BDF81A10206BB4
:1039D000008B084400B2ADF81A00226B05A8109BBA
:1039E000149903F0F0FB0120079002E0FFE70020AC
:1039F00007904FF0000AC2E02EB90B98824502D121
:103A0000012601270A95012E0AD194F90610A088F3
:103A100000F028FCB84203DA02260127E06A0A9087
:103A20000F9800FB0AF00721B0FBF1F0B9F8101075
:103A30000144688B084400B2ADF84400BDF844105E
:103A40000D980844401E00B2ADF84800012E28D160
:103A5000099830B394F90300B84222D111A905A8FE
:103A600001F057FEBDF84400ADF81400BDF8480061
:103A7000ADF81800BDF84610606BC08A081A00B295
:103A8000ADF81600BDF84A10606B008B084400B218
:103A9000ADF81A00626B05A8109B149903F093FB14
:103AA00000BFBEB9A388A079012800D100E00020A2
:103AB000191AA079012801D10C2002E094F906001E
:103AC000401E02463B46484601F011FD10B1D4F8B5
:103AD00028803BE0012E0AD194F90620A1883B46BC
:103AE000484601F004FD10B1D4F828802EE0022EE3
:103AF00018D1A388A0790C2801D1012000E0002072
:103B00001918A0790C2801D1012002E094F90600CF
:103B1000401C02463B46484601F0E9FC10B1D4F88F
:103B2000288013E0099840B194F90300B84204D109
:103B3000012E02D1D4F8348008E0079820B1012E7C
:103B400002D1D4F8308001E0DDF8288008A9384699
:103B50000AF0A2FD00204FF6FF71CDE90201CDE988
:103B60000410042008A9CDE90010424611A8109BBA
:103B7000149902F095FE781CC7B20AF1010ABAF155
:103B8000070FFFF439AF686A06F0FEF90C99084494
:103B9000BDF84610084400B2ADF84600686A06F069
:103BA000F3F90C990844BDF84A10084400B2ADF886
:103BB0004A000BF1010BBBF1060FFFF4CDAE15B0BF
:103BC000BDE8F08F2DE9F04399B005460F46284631
:103BD00009F00CF80446284609F01CF88046288AAB
:103BE000ADF85C00A88AADF86000688AADF85E00A8
:103BF000284600F0B9FA698A084400B2ADF86200BC
:103C00004346394617A8E26903F0DDFAA08807A900
:103C10000AF042FD20208DF8200000208DF82100C0
:103C200094F90610284600F03FFB814649460DF105
:103C30002100FCF7C4FABDF85E10E069C08A0844B0
:103C400000B2ADF85E0000204FF6FF71CDE9020131
:103C5000CDE90410042007A9CDE9001043463946F8
:103C600017A8E26902F01CFE94F90D00002801DAA1
:103C7000206A00E0E0690646BDF85C10E069408B10
:103C8000084400B2ADF85C0000204FF6FF71CDE9AA
:103C90000201CDE904101BA143463246CDE90010D4
:103CA000394617A802F0FCFD94F90D00002801DD4B
:103CB000206A00E0E069064600200090B6F92A304C
:103CC000032111A0726A0AF0B1FA0146BDF8602022
:103CD000E069808B101A401A00B2ADF85C00002039
:103CE0004FF6FF71CDE90201CDE9041006A143466C
:103CF0003246CDE90010394617A802F0D1FD19B0BF
:103D0000BDE8F083EF819300EF81940070B5044625
:103D10000D460026207800F0010068B92068B5EB58
:103D2000500F09D82946204600F020F8206820F0DE
:103D30000100401C2060261D304670BD10B50146B4
:103D4000002011B9084A10680CE00A1D0B6802EB4C
:103D50005300031D044C246804F58044A34200D39F
:103D6000002000BF10BD00000001002030B501F0B0
:103D7000030212B121F00301091D0A1D0368B2EB11
:103D8000530F01D1026851080268B1EB520F0ED0F7
:103D9000031D5A18146824F0010414600468C1EB70
:103DA0005404241F156864F35F05156000BF0268A2
:103DB00061F35F02026030BD70B58AB006460D4601
:103DC000062D1ED1304601F0F1FE0446C4B1208814
:103DD000B0B194F90300009094F9023022880AA14E
:103DE00002A8FFF709F902A90A48006807F049FE8E
:103DF0002146304601F074FF2146304601F035FF80
:103E000000BF0AB070BD000025642F25642F256413
:103E1000000000009C0100202DE9F84F0446884670
:103E2000914694F8580000F0010008B1BDE8F88F01
:103E3000E56800264FF0010A4FF0010B00BF8DB975
:103E400094F85800C0F3001000B956B9BBF1000F48
:103E500000D1EBE72046C04705464FF0000AD346A5
:103E600000E0E3E716B92E4606B9DFE7BAF1000F26
:103E700006D029462046C8470546B54200D1D5E7B9
:103E80004FF0010A05B9DAE7286808F0BDFE00B96D
:103E900000E0D4E700BFE068A84200D1C6E7E068D0
:103EA000A8B1E168086800221021C3699847E16859
:103EB000002208680D2105F081FF0090009801287C
:103EC00000D0B3E7E168086808F024FF00BFE560B0
:103ED000E168086800220F21C3699847E168002261
:103EE00008680C2105F06AFF0746012F00D09DE706
:103EF000E16808680AF068FCE168086808F00AFFF1
:103F0000A06910B12046A169884700BF8EE7000074
:103F100070B504460D46E1B20548FFF756F800BFFC
:103F200080210348FEF783FF0028F9D0204670BDAA
:103F30000038014070B506460C46304608F056FE83
:103F40000546686918B1686950F8240070BD0248D8
:103F500050F82400FAE700004401002070B505463F
:103F6000284608F043FE0446616A486A06F00CF8E9
:103F7000616AC98A0144606A008B084400B270BD5E
:103F8000F0B504460B46032B01D2012000E00020CF
:103F90000546611B981E0C2707FB0500C0EB40106F
:103FA000B0FBF7F01044084400EB91006427B1FB2C
:103FB000F7F7C01B4FF4C877B1FBF7F73844072772
:103FC000B0FBF7FC07FB1C06F0B2F0BD2DE9FC4787
:103FD00080460E4616B90020BDE8FC87D8F80C4094
:103FE0006069B04201D1A069F6E70025AEE005EBBB
:103FF0008501A06850F82100301A019005EB850179
:10400000A06800EB810080880199884200D29BE083
:10401000002705EB8501A06800EB8100807C00F0A3
:10402000030040B905EB8501A06800EB8100C08862
:104030000199471884E005EB8501A06800EB810039
:10404000807C00F0030001280FD105EB8502A168F8
:1040500001EB8201C86805EB8502A16801EB8201D2
:10406000C988019A825C8F186AE005EB8501A06817
:1040700000EB8100807C00F00300022827D1394842
:10408000009005EB8503A06800EB8300028A05EB36
:104090008503A06800EB83000223816801A80AF071
:1040A000D1FA8146B9F1000F10D005EB8502A16865
:1040B00001EB82018968A9EB0100400805EB85024C
:1040C000A16801EB8201C9880F1800BF38E005EB39
:1040D0008501A06800EB8100807C00F003000328CC
:1040E0002ED12048009005EB8503A06800EB8300EB
:1040F000028A05EB8503A06800EB83000223816838
:1041000001A80AF09FFA8146B9F1000F17D005EB1C
:104110008503A26802EB83029268A9EB02004008C3
:1041200005EB8503A26802EB8302D16805EB8503EA
:10413000A26802EB8302D2880B5CD71800BF00BFD5
:104140006661A761384647E7681C85B2608AC0F39C
:104150000900A8423FF74BAF66610020A06100BF95
:104160003AE7000075EA000870B50546284608F0F1
:104170003DFD0446E169486A05F006FFE169C98A28
:104180000144E069008B084400B270BD2DE9FC5F7A
:1041900080460D461646D8F80C704FF0000A788A13
:1041A000C0F34030002841D1FC68A068C0F3016032
:1041B000D8B9D4F8009005EB062080B201902748CA
:1041C0000090A06820F07F420223494601A80AF02F
:1041D00039FA8346BBF1000F06D0ABEB090040086B
:1041E000616811F900A000BF1FE0A068C0F3016082
:1041F00001281AD1D4F8009005EB06200190184848
:104200000090A06820F07F420423494601A80AF0EC
:1042100019FA8346BBF1000F06D0ABEB0900000989
:10422000616811F900A000BF00BF13E0F86843689F
:10423000595D43689A5D00290BDD002A09DD531E94
:104240004C1E90F80DC004FB0C330468E35C4FFA7D
:1042500083FA00BF5046BDE8FC9F0000955500085A
:104260007555000870B505460C46641E002C01DA31
:104270006D1E0C340C2C01DB6D1C0C3C012C04D18C
:10428000284601F062F91C300BE0072094FBF0F1A6
:1042900000FB114606EBD6704010A6EB4000C0F1C3
:1042A0001F00C0B270BD000070B506460C46641E0B
:1042B000002C00DA0C34304608F098FC0546A8695A
:1042C00018B1A86950F8240070BD024850F82400C5
:1042D000FAE700006001002001460020302905DBDC
:1042E000392903DCA1F13002D0B21CE0612902DBE4
:1042F000A1F12002D1B2A1F14102062A10D2DFE8D9
:1043000002F0030507090B0D0A200BE00B2009E062
:104310000C2007E00D2005E00E2003E00F2001E057
:10432000002000BF00BF704770B504460D46A06D69
:10433000A96830F821102184A06DA96800EB8100E4
:1043400041886184B4F92410B4F9200081420DD170
:10435000B4F92610B4F92200814207D1A87B0128C4
:1043600004D104F11C0000F059FD03E004F11C002D
:1043700000F012FF218CA184618CE18470BD0000EB
:104380002DE9F04F87B00446A569002703E02846D1
:1043900008F054FC0546284608F01CFC08B1002D26
:1043A000F5D115B907B0BDE8F08F284608F006FC36
:1043B00000B9F7E7284608F007FC0646218AA089DD
:1043C000084401B22182618AE089084401B2618215
:1043D00094F8240000F0010058BB06F0010070B111
:1043E000B4F91000002802DDB4F9100002E0B4F9BD
:1043F0001000404267490968097D884211DA06F0D9
:104400000200B0B1B4F91200002802DDB4F91200C4
:1044100002E0B4F9120040425E490968097D884211
:1044200007DB94F8240020F00100401C84F82400ED
:10443000012794F8240000F0010000287ED0A08914
:1044400010B9E0890028F9D052490968C86802F01B
:1044500041F88246B5F910B0B5F912000690284629
:1044600008F0ECFB039008F035FC0590284608F0B6
:10447000E5FB039008F0C0FB0490284608F032FCEE
:104480008046284608F03AFC8146032E12D13FB1FF
:10449000208A40440FFA80F8608A48440FFA80F975
:1044A000E089484402B2A089404401B2284608F09D
:1044B00028FD1CE006F0010058B11FB1208A4044DD
:1044C0000FFA80F8A089404401B2284608F0C6FDE2
:1044D0000DE006F0020050B11FB1608A48440FFAA7
:1044E00080F9E089484401B2284608F0C4FDB5F9D6
:1044F000100058452DD1B5F912100698814228D1E7
:10450000284608F09BFB019008F0E4FB0390284646
:1045100008F094FB019008F06FFB02900599039856
:10452000884215D104990298884211D11949096825
:10453000C86801F0CFFF0190019A00E027E0A2EBEC
:104540000A0291B2134A1268D06802F01DF800BF47
:104550001CE094F8240020F00200801C84F8240061
:10456000A7B10C48EB690D21026828469847204600
:1045700000F072FF00B115E700220821284605F07F
:104580001DFC204600F068FF00B10BE700BF00BF34
:1045900008E70000700000202DE9FF41044694F870
:1045A0002400C0F3400008B9BDE8FF81E56903E0DD
:1045B000284608F043FB0546284608F00BFB08B1E7
:1045C000002DF5D105B9EFE7284608F009FBD8B969
:1045D00094F8240020F0020184F824105948EB6973
:1045E0000E2102682846984700220921284605F036
:1045F000E5FB204600F030FF00B1D5E7002209219D
:10460000284605F0DBFBCFE7284608F0DDFA064632
:10461000B4F914004B490968497DC1F1640148436C
:10462000642190FBF1F001B2A182B4F91600454972
:104630000968497DC1F164014843642190FBF1F0B0
:1046400001B2E182A08A10B9E08A00285DD002A9F7
:10465000284608F079FA284608F044FBA18A084465
:104660000FFA80F8284608F049FB0146E08A084422
:1046700007B2032E05D13A464146284608F041FCD0
:104680000EE006F0010020B14146284608F0E6FCA5
:1046900006E006F0020018B13946284608F0EBFCA7
:1046A0006946284608F050FABDF90800BDF9001027
:1046B000884201D0A08A38BBBDF90A00BDF90210BA
:1046C000884201D0E08AF8B994F8240020F0020171
:1046D00084F824100021A181E181A182E18219489E
:1046E000EB690E21026828469847204600F0B4FE88
:1046F00000B159E700220921284605F05FFB20465A
:1047000000F0AAFE00B14FE71AE094F8240020F070
:10471000020184F824100B48EB690E210268284638
:104720009847204600F098FE00B13DE7002209219D
:10473000284605F043FB204600F08EFE00B133E72B
:1047400000BF31E7700000202DE9F84304460D4614
:10475000A87B012806D194F84C00C0F3C00008B132
:10476000BDE8F88394F84C00C0F3C00080B194F821
:104770004C0020F0080184F84C100021616494F88A
:104780004C0020F0010184F84C100021202001553C
:1047900094F82080A97B2020015569686162676DCB
:1047A00007B9DDE7384605F0B3FCC549086008469F
:1047B000006800B9D4E7A87B002843D1384605F04B
:1047C0009EFC00B3B5F90C0000280CDA002604E0CA
:1047D0001421384605F0F2FC761CB5F90C00404275
:1047E000B042F5DC0EE0B5F90C0000280ADD002629
:1047F00004E01321384605F0E1FC761CB5F90C0005
:10480000B042F6DC1EE0B5F90C0000280BDA0026F9
:1048100003E0384605F05EFC761CB5F90C0040421A
:10482000B042F6DC0DE0B5F90C00002809DD0026E9
:1048300003E0384605F0E4FB761CB5F90C00B04205
:10484000F7DC00BF384605F063FC9D490860084668
:10485000006800B984E7A87B012831D1B8F1000FC6
:104860002ED100200090964800686A461221C36944
:1048700093480068984709F0C5FB6064384605F026
:104880003EFC10B99DF80000C8B98D4800680022B0
:104890000721C3698A480068984704F11C0000F0AA
:1048A000DBFD00B15CE7002211468548006805F099
:1048B00085FA04F11C0000F0CFFD00B150E7F9E0EB
:1048C000A87B01284BD1B8F1010F48D194F84C00D6
:1048D00000F001000028F2D1606C09F085FBE18A4C
:1048E0008842ECD900200090754800686A46122181
:1048F000C3697348006898479DF8000068B138465E
:1049000007F08EFA18BB384605F0F9FB80F0010677
:104910003146384605F071FC19E06948006800220C
:104920000B21C36966480068984704F11C0000F039
:1049300093FD00B114E7002204216148006805F0EE
:104940003DFA04F11C0000F087FD00B108E794F87F
:104950004C0020F00100401C84F84C00AAE0A87B29
:104960000028ACD1B8F1010FA9D1009054480068DB
:104970006A461221C3695248006898479DF80000B2
:10498000B0BB4F48006800220A21C3694C48006848
:10499000984704F11C0000F05FFD00B1E0E694F8D8
:1049A0004C0000F0010028B90022032144480068AF
:1049B00005F004FA04F11C0000F04EFD00B1CFE652
:1049C000002206213E48006805F0F8F904F11C00B9
:1049D00000F042FD00B1C3E600220721384800681C
:1049E00005F0ECF904F11C0000F036FDA8B3B7E6C1
:1049F000FFE797F85800C0F3400078B394F84C00F4
:104A000000F0010018B1384607F00AFA28B32C4824
:104A1000006800220A21C36929480068984704F108
:104A20001C0000F019FD00B19AE600220321244881
:104A3000006805F0C3F904F11C0000F00DFD00B1A1
:104A40008EE6002206211E48006805F0B7F904F141
:104A50001C0000F001FD10B182E622E010E000220F
:104A600007211748006805F0A9F904F11C0000F0BF
:104A7000F3FC00B174E60A21384605F09FFB10E014
:104A80009DF8000068B197F85800C0F3400040B9A5
:104A900094F84C0000F0010018B90121384605F0E7
:104AA000ACFB0021616494F84C0020F0010184F813
:104AB0004C1000BF00200249086000BF50E6000013
:104AC000740000202DE9F04104460D46A87B012822
:104AD00006D194F84C00C0F3C00008B1BDE8F081E5
:104AE00094F84C00C0F3C00080B194F84C0020F062
:104AF000080184F84C100021616494F84C0020F007
:104B0000010184F84C10002120200155676D07B980
:104B1000E4E7384605F0FCFAA84908600846006852
:104B200000B9DBE7D4F82480696861622020065D63
:104B3000A97B0155A87B012861D1002E5FD109F026
:104B400061FA606468680A281ED10A21384605F0B7
:104B500035FB9A48006800220721C369974800681E
:104B6000984704F11C0000F077FC00B1B6E7002282
:104B700011469248006805F021F904F11C0000F08C
:104B80006BFC00283AD0A9E768681B2810D11B21CC
:104B9000384605F013FB002212218848006805F012
:104BA0000DF904F11C0000F057FC0028EAD095E74D
:104BB000686809280DD10021384605F01EFB3846EB
:104BC00005F01EFA04F11C0000F046FC0028D9D0C4
:104BD00084E768680B280DD10021384605F00DFBED
:104BE000384605F077FA04F11C0000F035FC002887
:104BF000C8D073E73846696805F0E0FAD9E0A87BC9
:104C0000012872D1012EFCD194F84C0000F0010073
:104C100068BB606C09F0E8F9E18A884227D994F80A
:104C20004C0020F00100401C84F84C0068680A2801
:104C3000E4D109F0E7F9A0646048006800220B2184
:104C4000C3695E480068984704F11C0000F004FC4A
:104C500000B143E7002204215848006805F0AEF88F
:104C600004F11C0000F0F8FB0028C7D036E794F8E8
:104C70004C0000F001000028C0D0A06C09F0B4F98D
:104C8000218B8842BAD909F0BDF9A06468680A2866
:104C90001AD14A48006800220C21C36947480068BD
:104CA000984704F11C0000F0D7FB00B116E7002282
:104CB00005214248006805F081F804F11C0000F06D
:104CC000CBFB002875D009E7686809280ED10021C0
:104CD000384605F092FA384605F092F904F11C00C6
:104CE00000F0BAFB002864D0F8E619E068680B28E9
:104CF0000CD10021384605F080FA384605F0EAF973
:104D000004F11C0000F0A8FB90B3E7E638466968A0
:104D100005F054FA04F11C0000F09EFB40B3DDE600
:104D2000A87B28BB012E44D1C5F8048068680A28F6
:104D300037D12248006800220A21C3691F48006851
:104D4000984704F11C0000F087FB00B1C6E694F818
:104D50004C0000F0010060B90022032117480068F0
:104D600005F02CF804F11C0000F076FB08B1B5E664
:104D70001FE0002206211148006805F01FF804F129
:104D80001C0000F069FB00B1A8E6002207210B48D7
:104D9000006805F013F804F11C0000F05DFB00B1A1
:104DA0009CE60021616494F84C0020F0010184F835
:104DB0004C1000200149086000BF8FE674000020FD
:104DC00070B504460D46206D90B1B4F92400B5F9D4
:104DD0000010884205D1B4F92600B5F902108842C6
:104DE00006D0B5F90220B5F90010206D08F089F859
:104DF0002988218469886184207F012804D104F1F5
:104E00001C0000F00BF803E004F11C0000F0C4F9F2
:104E1000218CA184618CE18470BD00002DE9F041FA
:104E20000446DB49A069086094F83000C0F3C00074
:104E300008B1BDE8F081D7480068C6680027D448AB
:104E4000006828BB304601F04BFB0546294620464A
:104E500000F012FBCE4908600846006848B93046A9
:104E600001F049FB05462946204600F005FBC849EC
:104E70000860C748006848B9304601F047FB05465E
:104E80002946204600F0F8FAC149086001272FE0C2
:104E900094F82400C0F3400050BB1021BC480068C7
:104EA00007F0ACFF20BB304601F01AFB054629464F
:104EB000204600F0E1FAB64908600846006848B9A3
:104EC000304601F018FB05462946204600F0D4FA8A
:104ED000AF490860AE48006848B9304601F016FB9B
:104EE00005462946204600F0C7FAA949086001276F
:104EF0003FB1E06928B10021A182E1822046FFF79D
:104F00004BFBA349A069096888426ED0A188218122
:104F1000E1886181A069B0B1A5699E48EB6909216A
:104F2000026828469847204600F096FA00B180E7CC
:104F300000220221284604F041FF204600F08CFAAE
:104F400000B176E700BF92480168A1610168E161A4
:104F50000068002849D009F055F8A06294F83000A4
:104F600020F0010084F8300094F8240020F00101C2
:104F700084F8241094F8240020F0020184F824100E
:104F8000002121826182A181E181814805688846F2
:104F900009E095F83000C0F3401000B1A84628465B
:104FA00007F04CFE0546002DF3D1B8F1000F02D0FA
:104FB000404607F02CFF76480068C3697548072112
:104FC0000268734800689847204600F045FA00B12F
:104FD0002FE7002211466E48006804F0EFFE2046DD
:104FE00000F03AFA00B124E700BFA1882089081A2E
:104FF00001B2A181E1886089081A01B2E181B4F9A6
:10500000140000EB8000C010A082B4F9160000EB81
:105010008000C110E182B4F91400002804DAA08AEB
:10502000401C01B2A18207E0B4F91400002803DD9E
:10503000A08A401E01B2A182B4F91600002804DA49
:10504000E08A401C01B2E18207E0B4F916000028B2
:1050500003DDE08A401E01B2E182A18AB4F90C00AE
:10506000800001EBE00001B2A182E18AB4F90E00F8
:10507000800001EBE00001B2E182454800680028B1
:1050800075D043480068C369424808210268404817
:1050900000689847204600F0DFF900B1C9E6002219
:1050A00001213B48006804F089FE204600F0D4F955
:1050B00000B1BEE62046FFF763F9204600F0CCF9C8
:1050C00000B1B6E694F82400C0F3400078BB94F831
:1050D000300000F0010050BBA06A08F085FF2D49A8
:1050E0000968C98A884222D929480068C3692948C1
:1050F0000B210268264800689847204600F0ACF96A
:1051000000B196E6002204212148006804F056FE12
:10511000204600F0A1F900B18BE694F8300020F0B1
:105120000100401C84F8300008F06CFFE06294F845
:105130002400C0F34000D0B994F8300000F0010022
:10514000A8B1E06A08F050FF12490968098B88424B
:105150001CD90F480068C3690E480C2102680C482E
:1051600000689847204600F077F908B161E60DE045
:10517000002205210648006804F020FE204600F0C9
:105180006BF900B155E608F03DFFE06200BF50E664
:1051900074000020700000202DE9F041044694F8CE
:1051A0003000C0F3C00058B10021A161E1610020CE
:1051B000A062E06294F8300020F0080084F830002B
:1051C0008C49A069086008460068002874D0102146
:1051D0008848006807F012FE00283AD08548006829
:1051E000C36985480A2102688248006898472046BA
:1051F00000F032F908B1BDE8F08194F82400C0F362
:105200004000D0B994F8300000F0010050B90022FD
:1052100003217848006804F0D1FD204600F01CF915
:1052200000B1E8E7002206217248006804F0C6FDDC
:10523000204600F011F900B1DDE7002207216D489A
:10524000006804F0BBFD204600F006F900283FD0BE
:10525000D1E768480068C36967480A210268654861
:1052600000689847204600F0F7F800B1C3E794F8CB
:10527000300000F0010078B994F82400C0F3400039
:1052800050B9002203215B48006804F097FD2046D6
:1052900000F0E2F800B1AEE794F82400C0F340005B
:1052A00058B9002206215348006804F087FD2046C3
:1052B00000F0D2F808B19EE78AE0002207214D48AD
:1052C000006804F07BFD204600F0C6F800B192E7CC
:1052D000204600F0C1F800B18DE74FF000084548C6
:1052E000006807F086FC054620214248006807F068
:1052F00085FD10BB3F48076810E0384607F09EFC6C
:10530000074607B90CE02021384607F077FD08B1C1
:10531000002705E0384607F06CFC0546002DECD070
:1053200000BF4DB147B1284604F0E0FE20B14FF078
:105330000108384604F070FE00BF2E49206A096853
:10534000884219D0B8F1000F16D100220D21206A31
:1053500004F034FD204600F07FF800B14BE7002256
:105360000C21A06904F02AFD204600F075F800B178
:1053700041E7204801682162204600F06DF800B145
:1053800039E71C48066803E0304607F057FC06463C
:10539000304607F01FFC08B1002EF5D196B130461B
:1053A00007F01EFC70B194F82400C0F3400048B12F
:1053B00000220A21304604F001FD204600F04CF89E
:1053C00000B118E70021A1610020A062E06200BFE7
:1053D000E06960B194F83000C0F3400038B920466D
:1053E000FFF7DAF8204600F037F800B103E700BF16
:1053F00001E70000740000207000002090F84C10BD
:10540000C1F3400129B3002242638263C26390F872
:10541000401021F0010280F8402090F8401021F067
:10542000020280F8402090F84C1021F0010280F830
:105430004C200022426482648285C28502864286B4
:1054400090F84C1021F0020280F84C200021014A13
:105450001160704774000020014691F83000C0F3DD
:10546000400010B10020034A106091F83000C0F3F2
:1054700040007047740000202DE9F04107460C46BB
:105480000025391D04F1100000F00CFA00282BD083
:10549000201D06F01FFC80460BE041463846FFF712
:1054A000EBFF054605B107E04146201D06F017FC5D
:1054B0008046B8F1000FF0D100BFA5B9204607F033
:1054C0003DFB80B1264608E0304607F09DFB00B169
:1054D00005E0304607F0B2FB0646002EF4D100BFCF
:1054E00006B9254600BF00BF2846BDE8F0812DE97A
:1054F000F04781460E4617469846484607F076FB29
:105500000446A06808B1207B10B90020BDE8F087F0
:10551000002515E0A06830F82500B0420FD1A06842
:1055200000EB850090F90200B84208D1A06800EBBA
:10553000850090F90300404501D10120E6E76D1C8C
:10554000207BA842E6D80020E0E7014601F00300F6
:1055500070B96420B1FBF0F200FB121030B94FF4C7
:10556000C870B1FBF0F200FB121008B901207047BF
:105570000020FCE730B5024614460B4620881D8803
:10558000A84203D020881D88401B30BD60885D88FC
:10559000401BFAE730B5024614460B4620781D78CA
:1055A000A84203D020781D78401B30BD60785D781C
:1055B000401BFAE710B52421064806F0AAFB08F0C4
:1055C00021FD05490860002303221E21034808F03D
:1055D0004DFB10BDB8050020EC000020CD330008C5
:1055E00070B50546686818B1D5E9000100F024F8E7
:1055F0000F4806F099FB04460CB900BFFEE704B95A
:1056000070BD95F8200020F0040085F820002422C9
:1056100029462046FAF7A8FD606820B1238A19B20E
:10562000D4E90002904701200249087000BFE7E773
:10563000B8050020F00000202DE9F04107460D4696
:105640004FF00008104806F045FB044617E02146DD
:105650000D4806F044FB06462068B8420ED160684B
:10566000A84200D055B92146074806F01AFC20464A
:1056700006F082FC01200549087080463446002C63
:10568000E5D14046BDE8F081B8050020F0000020DB
:1056900010B50146088BB1F91A40A04202D14FF46F
:1056A000806205E0B1F91A0080020C8B90FBF4F2E5
:1056B000D1E90440001B00FB02F39B12086903447C
:1056C00018B210BD30B504460B46981A002801DD0B
:1056D000981A00E0D01A05464FF47A70684390FBA0
:1056E000F4F1B1F5803F01D34FF6FF7101B9491CC8
:1056F00088B230BD0A6802604A68426070470A6832
:1057000002604A68426070470A6802604A68426004
:1057100070470A6802604A68426070470146C8885C
:105720004A88801A401C00B270470146C8884A88DF
:10573000801A401C00B270470146C8884A88801A07
:10574000401C00B2704710B50146B1F90420B1F910
:105750000030D21A521CB1F90630B1F902401B1BBD
:105760005B1C02FB03F010BD014688880A88801A82
:10577000401C00B27047014688880A88801A401C85
:1057800000B27047014688880A88801A401C00B21F
:105790007047014688880A88801A401C00B270470A
:1057A000014688880A88801A401C00B2704730B5CC
:1057B0000346B1F90040B2F90050AC4202DDB1F944
:1057C000004001E0B2F900401C80B1F90240B2F99A
:1057D0000250AC4202DDB1F9024001E0B2F90240F0
:1057E0005C80B1F90440B2F90450AC4202DAB1F97C
:1057F000044001E0B2F904409C80B1F90640B2F9DE
:105800000650AC4202DAB1F9064001E0B2F90640B6
:10581000DC800120B3F90040B3F90450AC4205DC50
:10582000B3F90240B3F90650AC4200DD002030BDB0
:1058300010B502460020B2F90030B1F90040A34291
:1058400012DBB2F90230B1F90240A3420CDBB2F92B
:105850000430B1F90440A34206DCB2F90630B1F9D4
:105860000640A34200DC012010BD0246B2F9000050
:10587000B1F90430984213DCB2F90400B1F90030F8
:1058800098420DDBB2F90200B1F90630984207DC0C
:10589000B2F90600B1F90230984201DB01207047ED
:1058A0000020FCE710B502460020B1F90030B2F943
:1058B0000040A34212DBB1F90030B2F90440A34228
:1058C0000CDCB1F90230B2F90240A34206DBB1F9B7
:1058D0000230B2F90640A34200DC012010BD10B531
:1058E000B1F90030B2F90040A34202DAB1F9003058
:1058F00001E0B2F900300380B1F90230B2F90240A0
:10590000A34202DAB1F9023001E0B2F90230438079
:10591000B1F90430B2F90440A34202DDB1F9043018
:1059200001E0B2F904308380B1F90630B2F90640E3
:10593000A34202DDB1F9063001E0B2F90630C380BE
:1059400010BD10B5029C018042808380C48010BDD0
:105950002DE9F04180460E463146404606F000FFF4
:1059600007460FB900BFFEE717B90020BDE8F08178
:105970003821384606F0E9FE04460CB900BFFEE7C0
:105980000CB90020F2E76848006820B9384607F0F3
:1059900065F9654908606548006820B9384607F030
:1059A000DCF86249086040F2E27020800120A070BB
:1059B000E07040F2E270A0800121A171E17100204D
:1059C000E081002121746174A06020736061A06196
:1059D0005748E061574820625548A0625648E06247
:1059E00053482063534860635448606254493846C2
:1059F00007F0D8FA5349384607F072FA002E67D1FB
:105A000078221146384607F0CFFA4C49384607F05D
:105A10001AFB08F0DDFA054685B300213846D5F8B3
:105A20008C2000F033F9902042590121384600F0D3
:105A30002DF9942042590221384600F027F9982088
:105A400042590321384600F021F9A4204259062189
:105A5000384600F01BF9A82042590721384600F0CB
:105A600015F99C2042590421384600F00FF9A02076
:105A700042590521384600F009F928E0FFE72F4A8E
:105A80000021384600F002F901213846E26900F0B1
:105A9000FDF802213846226A00F0F8F80321384662
:105AA000626A00F0F3F806213846226B00F0EEF847
:105AB00007213846626B00F0E9F804213846A26AF3
:105AC00000F0E4F805213846E26A00F0DFF829E04A
:105AD000304607F08BF8054628882080A878A0700B
